:1000000035EF06F00A0D0A0D00000D0A2020202011
:10001000524543494249454E444F204441544120B2
:100020003D2000000D0A4641494C206F6E20474597
:1000300054440D0A00000D0A20202020454E564948
:10004000414E444F2044415441203D2000000D0AC0
:100050004641494C206F6E20505554440D0A000013
:100060000D0A0D0A4343532043414E204558414D4C
:10007000504C450D0A000D0A52756E6E696E672E62
:100080002E2E00006369636C6F2E2E200A0009007B
:10009000F5520DE0F6CF18F0F7CF19F0F5509EA805
:1000A000FED7AD6E18C0F6FF19C0F7FFF0D7000CF1
:1000B0000638700B006ED89000361F0E6F140010BB
:1000C0006F6E6ECF00F0003A0030070B065CF9E16E
:1000D000000C410E706EF10E716E850E726E09EF9E
:1000E00001F02C5252E026C0E9FF27C0EAFF28C0E9
:1000F000EFFF2650D8B42706260626C0E9FF27C002
:10010000EAFF29C0EFFF2650D8B42706260626C0EE
:10011000E9FF27C0EAFF2A50030BEF6E26C0E9FF74
:1001200027C0EAFF2AC000F0003600360036F80E7D
:1001300000160050E00BEF10EF6E26C0E9FF27C05D
:10014000EAFFEF500809EF6E2650D8B427062606BE
:1001500026C0E9FF27C0EAFF2AC000F0003A0032BB
:10016000070E00160050070BEF6E26C0E9FF27C0F0
:10017000EAFF2BC000F0003600360036F80E0016FD
:100180000050F80BEF10EF6E3FD026C0E9FF27C0FC
:10019000EAFFEF6A2650D8B42706260626C0E9FFF4
:1001A00027C0EAFFEF6A2650D8B42706260626C0E5
:1001B000E9FF27C0EAFF28C000F0003A0036E00E51
:1001C00000160050E00BEF6E2650D8B42706260626
:1001D00026C0E9FF27C0EAFF28C000F00032003245
:1001E00000321F0E001600501F0BEF6E26C0E9FFF5
:1001F00027C0EAFF29C000F0003A0036E00E0016E2
:100200000050E00BEF10EF6E000C040E066E50DF96
:1002100060D7056A606A9F0E6014606E608460CF6C
:1002200050FF739A7398739E739C0F0E276E1B0E6C
:10023000266E2B6A2A6A296A286A2C6A52DF0F0EF8
:10024000276E030E266E2B6A2A6A296A286A2C6A90
:1002500048DF0F0E276E070E266E2B6A2A6A296A60
:10026000286A2C6A3EDF0F0E276E1F0E266E2B6A41
:100270002A6A296A286A2C6A34DF0F0E276E0B0E51
:10028000266E2B6A2A6A296A286A2C6A2ADF0F0ED0
:10029000276E266E2B6A2A6A296A286A2C6A21DF51
:1002A0000F0E276E130E266E2B6A2A6A296A286A99
:1002B0002C6A17DF0F0E276E170E266E2B6A2A6A1E
:1002C000296A286A2C6A0DDF0D0E276E630E266ED2
:1002D0002B6A2A6A296A286A2C6A03DF0D0E276EA8
:1002E000670E266E2B6A2A6A296A286A2C6AF9DE4A
:1002F0000D0E276E6B0E266E2B6A2A6A296A286AF3
:100300002C6AEFDE0D0E276E730E266E2B6A2A6A9C
:10031000296A286A2C6AE5DE0D0E276E770E266E96
:100320002B6A2A6A296A286A2C6ADBDE0D0E276E80
:100330007B0E266E2B6A2A6A296A286A2C6AD1DE0D
:100340000D0E276E830E266E2B6A2A6A296A286A8A
:100350002C6AC7DE0D0E276E870E266E2B6A2A6A60
:10036000296A286A2C6ABDDE0D0E276E8B0E266E5A
:100370002B6A2A6A296A286A2C6AB3DE0D0E276E58
:10038000930E266E2B6A2A6A296A286A2C6AA9DECD
:100390009350FB0B0809936E066A8ADE59EF06F04C
:1003A0002D6A2C6A2B6A2A6A28C02FF027C02EF0EB
:1003B0002952D8B493D02FC003F02EC0E9FF2FC02C
:1003C000EAFFEFCF00F0016A026A036A03C02DF072
:1003D00002C02CF001C02BF000C02AF02E50D8B47F
:1003E0002F062E062EC0E9FF2FC0EAFFEF50326A1B
:1003F000316A306E006A00502A1230502B12315090
:100400002C1232502D122E50D8B42F062E062EC08C
:10041000E9FF2FC0EAFFEF50336A326A316A306E6B
:10042000030E3016316A326A336A006A016A00507C
:100430002A1201502B1230502C1231502D122EC086
:10044000E9FF2FC0EAFFEF50336A326A316A306E3B
:10045000E00E3016316A326A336A006A3034016E57
:100460003134026E3234036E013602360336013601
:1004700002360336013602360336013602360336BB
:10048000E00E011600502A1201502B1202502C12BD
:1004900003502D122E50D8B42F062E062EC0E9FF81
:1004A0002FC0EAFFEF50316A306E006A016A3034C3
:1004B000026E3134036E02360336023603360236DC
:1004C000033602360336E00E021600502A1201509F
:1004D0002B1202502C1203502D1253D0020E2E5EFE
:1004E000000E2F5A2EC0E9FF2FC0EAFFEF50336AEB
:1004F000326A316A306EE00E3016316A326A336A1F
:1005000033302D6E32302C6E31302B6E30302A6EFF
:100510002D322C322B322A322D322C322B322A32EF
:100520002D322C322B322A322D322C322B322A32DF
:10053000070E2D162E50D8B42F062E062EC0E9FF1A
:100540002FC0EAFFEF50336A326A316A306E3034BE
:10055000006E3134016E3234026E3334036E003675
:100560000136023603360036013602360336F80EFF
:10057000001600502A1201502B1202502C12035068
:100580002D122AC000F02BC001F02CC002F02DC0AB
:1005900003F0FFEF03F01ABE10D00F0E006E1938F3
:1005A00000160A0E005C03E2300E002602D01A503C
:1005B000002600509EA8FED7AD6E0F0E19160A0E2B
:1005C000195C02E2300E02D01A9E1A5019261950F8
:1005D0009EA8FED7AD6E000C60BE36D00F0150AFA6
:1005E00002D0000131D00E0120AF06D00D01F8B5C8
:1005F00002D0000129D00E0130AF06D00D01F8B7AE
:1006000002D0000121D00E0140AF06D00D01F8B993
:1006100002D0000119D00E0150AF06D00D01F8BB79
:1006200002D0000111D00E0160AF06D00D01F8BD5F
:1006300002D0000109D00E0170AF84D10D01F8AFD6
:1006400002D00E017FD10001196A0E0E186E60AE45
:100650001ED0055204E1F10E6F146F6E04D0E00E4F
:1006600077141009776E086A055207E0069074BC8B
:10067000068060501F0B076E09D0069074BE06807E
:10068000749E60A403D0076A60B0072AA4D00F014B
:1006900050AF1ED0055205E1F10E6F140A096F6EBE
:1006A00004D0E00E77141109776E010E086E055222
:1006B00007E0069074BC068050511F0B076E07D0F0
:1006C000069074BC0680749C5051070B076E82D054
:1006D0000E0120AF13D00D01F8A502D00E010ED0EF
:1006E000E00E77141209776E020E086E069074BC45
:1006F00006800E0120511F0B076E6CD030AF13D057
:100700000D01F8A702D00E010ED0E00E77141309E8
:10071000776E030E086E069074BC06800E01305191
:100720001F0B076E57D040AF13D00D01F8A902D0B0
:100730000E010ED0E00E77141409776E040E086EC9
:10074000069074BC06800E0140511F0B076E42D00C
:1007500050AF13D00D01F8AB02D00E010ED0E00E59
:1007600077141509776E050E086E069074BC068026
:100770000E0150511F0B076E2DD060AF13D00D012D
:10078000F8AD02D00E010ED0E00E77141609776E88
:10079000060E086E069074BC06800E0160511F0B99
:1007A000076E18D070AF13D00D01F8AF02D00E0154
:1007B0000ED0E00E77141709776E070E086E0690BC
:1007C00074BC06800E0170511F0B076E03D0000E23
:1007D000016E85D0000165500F0B166E099065BC47
:1007E0000980099262B60982000E09B2010E1D6EDF
:1007F0000F0E286E640E276E1DC029F0D1D503C0E0
:100800000DF002C00CF001C00BF000C00AF00F0E9A
:100810001C6E660E1B6E1A6A16501A5C14E21BC020
:10082000E9FF1CC0EAFFEFCF1FF019C0EAFF18C0B4
:10083000E9FF1FC0EFFF182AD8B4192A1B2AD8B421
:100840001C2A1A2AE9D708500FE0010A14E0030A0B
:1008500017E0010A1AE0070A1DE0010A20E0030A76
:1008600023E0010A26E02AD0609E055202E0A4920D
:1008700001D0A49023D00F01509FA49200011ED05C
:100880000E01209FA492000119D00E01309FA49266
:10089000000114D00E01409FA49200010FD00E0160
:1008A000509FA49200010AD00E01609FA492000103
:1008B00005D00E01709FA492000100D00994A4BE3F
:1008C0000984A49E055204E1F10E6F146F6E04D0EA
:1008D000E00E77141009776E010E016E0E010152C1
:1008E00029E00A0EF66E000EF76E000147EC00F0EC
:1008F000176A1650175C14E2036A17500E0FE96E60
:10090000000E0320EA6EEFCF18F018C019F0370E72
:100910001A6E41DE200E9EA8FED7AD6E172AE9D7CB
:100920000D0E9EA8FED7AD6E0A0E9EA8FED7AD6E28
:1009300008D00E01240EF66E000EF76E000147EC93
:1009400000F00E01000169EF06F0EA6A070EE96E99
:10095000EF500EE0050E016E006A002EFED7012E4C
:10096000FBD72E0E006E002EFED700D0EF2EF2D752
:10097000000C0F0E246E660E236E0F0140B70DD0D3
:10098000055205E1F10E6F1408096F6E04D0E00EF8
:1009900077140309776E256A7FD030B70ED00552E1
:1009A00005E1F10E6F1406096F6E04D0E00E7714A6
:1009B0000409776E010E256E6FD020B70ED0055258
:1009C00005E1F10E6F1404096F6E04D0E00E771488
:1009D0000509776E020E256E5FD00E0120B70DD08F
:1009E0000D01F8B502D00E0108D0E00E77141209FF
:1009F000776E030E256E4FD00E0130B70DD00D016E
:100A0000F8B702D00E0108D0E00E77141309776E04
:100A1000040E256E40D00E0140B70DD00D01F8B97F
:100A200002D00E0108D0E00E77141409776E050E7F
:100A3000256E31D00E0150B70DD00D01F8BB02D09C
:100A40000E0108D0E00E77141509776E060E256E9C
:100A500022D00E0160B70DD00D01F8BD02D00E01FD
:100A600008D0E00E77141609776E070E256E13D0A6
:100A70000E0170B70DD00D01F8BF02D00E0108D0E5
:100A8000E00E77141709776E080E256E04D00E015C
:100A9000000E016E44D00F011F50030B006EFC0EC0
:100AA00060140010606E0F0E276E640E266E1BC061
:100AB0002BF01AC02AF019C029F018C028F020C065
:100AC0002CF0000171EC00F01EC065FF659C21B0A8
:100AD000658C226A1E50225C14E21CC0E9FF1DC016
:100AE000EAFFEFCF28F024C0EAFF23C0E9FF28C0C7
:100AF000EFFF232AD8B4242A1C2AD8B41D2A222A7C
:100B0000E9D76086055204E1F10E6F146F6E04D0D0
:100B1000E00E77141009776E010E016E0E010001D0
:100B2000FFEF05F0010E066E020E076E030E086E53
:100B3000040E096E050E0A6E0B6E0C6E0D6E116AB8
:100B4000106A0F6A0C0E0E6E12901292080E136E3F
:100B5000030E146E0F0140A735D030A733D020A765
:100B600031D00E0120B706D00D01F8A502D00F013B
:100B700029D00E0130B706D00D01F8A702D00F0121
:100B800021D00E0140B706D00D01F8A902D00F0107
:100B900019D00E0150B706D00D01F8AB02D00F01ED
:100BA00011D00E0160B706D00D01F8AD02D00F01D3
:100BB00009D00E0170B756D00D01F8BF02D00E015A
:100BC00051D00F01000E12B2010E166E000E12B0BF
:100BD000010E176E11C01BF010C01AF00FC019F0F3
:100BE0000EC018F01D6A060E1C6E13C01EF014C055
:100BF0001FF016C020F017C021F00001BAD601C0C6
:100C000015F0153C01D027D0360EF66E000EF76EAB
:100C100047EC00F0156A1350155C14E2036A155096
:100C2000060FE96E000E0320EA6EEFCF16F016C035
:100C300019F0370E1A6EAFDC200E9EA8FED7AD6EEF
:100C4000152AE9D70D0E9EA8FED7AD6E0A0E9EA8F6
:100C5000FED7AD6E06D04E0EF66E000EF76E47EC68
:100C600000F00E01000171EF06F0F86AD09EEA6A0A
:100C7000E96AB886A00EAF6E010EB06EA60EAC6E1D
:100C8000900EAB6EB886A00EAF6E010EB06EA60EC3
:100C9000AC6E900EAB6EC150C00B0F09C16E070E4B
:100CA000B46E600EF66E000EF76E47EC00F005EFC6
:100CB00001F09D82C00EF212760EF66E000EF76EF7
:100CC00047EC00F0840EF66E000EF76E47EC00F075
:100CD00083D4020E066EFA0E076E37DE062EFBD7A1
:100CE00021D7020E066EFA0E076E2FDE062EFBD7F8
:040CF000E9D703003D
:020000040030CA
:0E00000000C21E1E008691000FC00FE00F40D0
:00000001FF
;PIC18F4580
;CRC=94E4  CREATED="02-nov.-20 11:36"
