:0400000048EF06F0CF
:08000800046ED8CF05F0E0CF33
:1000100006F00001E9CF0CF0EACF07F0E1CF08F0DD
:10002000E2CF09F0D9CF0AF0DACF0BF0F3CF12F01C
:10003000F4CF13F0FACF14F000C00EF001C00FF0AF
:1000400002C010F003C011F09DA22AEF00F09EB292
:10005000C8EF00F00EC000F00FC001F010C002F0B9
:1000600011C003F00CC0E9FF07C0EAFF078E08C00B
:10007000E1FF09C0E2FF0AC0D9FF0BC0DAFF12C0DE
:10008000F3FF13C0F4FF14C0FAFF045006C0E0FFF2
:1000900005C0D8FF10000D0A43414E5F505554442F
:1000A0002829204641494C3A204E4F204F50454E7A
:1000B00020545820425546464552530D0A000D0A19
:1000C00043414E5F5055544428293A2042554646F4
:1000D0003D25552049443D254C58204C454E3D2555
:1000E00055205052493D2555204558543D25552011
:1000F0005254523D25550D0A0000202044415441E0
:10010000203D20000D0A4641494C204F4E204341DE
:100110004E5F4745544428293A204E4F204D4553C1
:100120005341474520494E204255464645520D0A07
:1001300000000D0A43414E5F4745544428293A20A8
:10014000425546463D25552049443D254C58204CB6
:10015000454E3D2555204F56463D255520004649E4
:100160004C543D2555205254523D25552045585458
:100170003D255520494E563D255500000D0A2020AD
:10018000202044415441203D20000A0D0A0D00006A
:10019000182AD8B4192A9E922AEF00F00D0A0D0AE7
:1001A0004343532043414E204558414D504C450D4B
:1001B0000A000D0A52756E6E696E672E2E2E0000B3
:1001C0000D0A474F543A20425546463D2555204991
:1001D000443D254C55204C454E3D2555204F564617
:1001E0003D255520000046494C543D25552052548C
:1001F000523D2555204558543D255520494E563DE4
:10020000255500000D0A2020202044415441203D66
:1002100020000D0A4641494C206F6E20474554444A
:100220000D0A00000D0A5055542025553A20494426
:100230003D254C55204C454E3D2555200000505243
:10024000493D2555204558543D2555205254523D91
:1002500025550D0A20202044415441203D20000016
:100260000D0A4641494C206F6E20505554440D0AEA
:1002700000000900F5520DE0F6CF4BF0F7CF4CF03F
:10028000F5509EA8FED7AD6E4BC0F6FF4CC0F7FFF1
:10029000F0D7000C3B38700B006ED89000361F0E64
:1002A0006F1400106F6E6ECF00F0003A0030070B35
:1002B0003B5CF9E1000CC00E70140409706E3F0E37
:1002C0007014706EF80E71140209716EC70E7114FD
:1002D0002809716E719C718EF80E72140509726E88
:1002E000729C0BEF02F0515252E04BC0E9FF4CC040
:1002F000EAFF4DC0EFFF4B50D8B44C064B064BC045
:10030000E9FF4CC0EAFF4EC0EFFF4B50D8B44C069B
:100310004B064BC0E9FF4CC0EAFF4F50030BEF6E9A
:100320004BC0E9FF4CC0EAFF4FC000F0003600367A
:100330000036F80E00160050E00BEF10EF6E4BC0C9
:10034000E9FF4CC0EAFFEF500809EF6E4B50D8B4FC
:100350004C064B064BC0E9FF4CC0EAFF4FC000F013
:10036000003A0032070E00160050070BEF6E4BC02C
:10037000E9FF4CC0EAFF50C000F0003600360036FE
:10038000F80E00160050F80BEF10EF6E3FD04BC088
:10039000E9FF4CC0EAFFEF6A4B50D8B44C064B065D
:1003A0004BC0E9FF4CC0EAFFEF6A4B50D8B44C0693
:1003B0004B064BC0E9FF4CC0EAFF4DC000F0003ACD
:1003C0000036E00E00160050E00BEF6E4B50D8B434
:1003D0004C064B064BC0E9FF4CC0EAFF4DC000F095
:1003E0000032003200321F0E001600501F0BEF6E5D
:1003F0004BC0E9FF4CC0EAFF4EC000F0003A0036A7
:10040000E00E00160050E00BEF10EF6E000C040E33
:100410003B6E40DF50D7176A606A9F0E6014606EB3
:10042000608460CF50FF739A7398739E739C0F0E15
:100430004C6E1B0E4B6E506A4F6A4E6A4D6A516A83
:1004400052DF0F0E4C6E030E4B6E506A4F6A4E6AAF
:100450004D6A516A48DF0F0E4C6E070E4B6E506AA4
:100460004F6A4E6A4D6A516A3EDF0F0E4C6E1F0E88
:100470004B6E506A4F6A4E6A4D6A516A34DF0F0EF6
:100480004C6E0B0E4B6E506A4F6A4E6A4D6A516A43
:100490002ADF0F0E4C6E4B6E506A4F6A4E6A4D6AE1
:1004A000516A21DF0F0E4C6E130E4B6E506A4F6A6D
:1004B0004E6A4D6A516A17DF0F0E4C6E170E4B6E67
:1004C000506A4F6A4E6A4D6A516A0DDF0D0E4C6ECE
:1004D000630E4B6E506A4F6A4E6A4D6A516A03DF73
:1004E0000D0E4C6E670E4B6E506A4F6A4E6A4D6A27
:1004F000516AF9DE0D0E4C6E6B0E4B6E506A4F6AF0
:100500004E6A4D6A516AEFDE0D0E4C6E730E4B6EE5
:10051000506A4F6A4E6A4D6A516AE5DE0D0E4C6EA6
:10052000770E4B6E506A4F6A4E6A4D6A516ADBDE37
:100530000D0E4C6E7B0E4B6E506A4F6A4E6A4D6AC2
:10054000516AD1DE0D0E4C6E830E4B6E506A4F6AAF
:100550004E6A4D6A516AC7DE0D0E4C6E870E4B6EA9
:10056000506A4F6A4E6A4D6A516ABDDE0D0E4C6E7E
:100570008B0E4B6E506A4F6A4E6A4D6A516AB3DEFB
:100580000D0E4C6E930E4B6E506A4F6A4E6A4D6A5A
:10059000516AA9DE9350FB0B0809936E3B6A7ADE21
:1005A00093EF06F0506A4F6A4E6A4D6A4BC052F0A4
:1005B0004AC051F04C52D8B493D052C003F051C04D
:1005C000E9FF52C0EAFFEFCF00F0016A026A036A56
:1005D00003C050F002C04FF001C04EF000C04DF01B
:1005E0005150D8B45206510651C0E9FF52C0EAFF3B
:1005F000EF50556A546A536E006A00504D125350C2
:100600004E1254504F12555050125150D8B45206F9
:10061000510651C0E9FF52C0EAFFEF50566A556AD1
:10062000546A536E030E5316546A556A566A006A2A
:10063000016A00504D1201504E1253504F12545047
:10064000501251C0E9FF52C0EAFFEF50566A556A96
:10065000546A536EE00E5316546A556A566A006A1D
:100660005334016E5434026E5534036E0136023633
:1006700003360136023603360136023603360136BA
:1006800002360336E00E011600504D1201504E1294
:1006900002504F12035050125150D8B45206510616
:1006A00051C0E9FF52C0EAFFEF50546A536E006A2E
:1006B000016A5334026E5434036E02360336023636
:1006C00003360236033602360336E00E02160050B9
:1006D0004D1201504E1202504F120350501253D07F
:1006E000020E515E000E525A51C0E9FF52C0EAFF9D
:1006F000EF50566A556A546A536EE00E5316546AA8
:10070000556A566A5630506E55304F6E54304E6EA4
:1007100053304D6E50324F324E324D3250324F3296
:100720004E324D3250324F324E324D3250324F32C5
:100730004E324D32070E50165150D8B45206510663
:1007400051C0E9FF52C0EAFFEF50566A556A546A39
:10075000536E5334006E5434016E5534026E563469
:10076000036E003601360236033600360136023695
:100770000336F80E001600504D1201504E12025072
:100780004F12035050124DC000F04EC001F04FC048
:1007900002F050C003F0B8EF07F00900F6CF4DF0BB
:1007A000F7CF4EF0F5509EA8FED7AD6E4DC0F6FFC8
:1007B0004EC0F7FF4C2EF1D7000C4F50016A4E5C33
:1007C00003E24EC000F00CD0006A080E506E4E36A8
:1007D00000364F50005CD8B0006E0136502EF7D76F
:1007E000000C01504CC04EF0640E4F6EE6DF00C0AE
:1007F0004CF00150300E07E14DA20DD04DB60BD09C
:100800004DB8200E03D04D964D984D8001260150D5
:100810009EA8FED7AD6E4CC04EF00A0E4F6ECDDFD7
:1008200000C04CF00150300E06E14DB609D04DA08D
:1008300007D04DB8200E012601509EA8FED7AD6E00
:10084000300E4C264C509EA8FED7AD6E000C4DBE0F
:1008500010D00F0E006E4C3800160A0E005C03E23A
:10086000300E002602D04D50002600509EA8FED724
:10087000AD6E0F0E4C160A0E4C5C02E2300E02D02A
:100880004D9E4D504C264C509EA8FED7AD6E000C90
:10089000006A016A026A036A506A516A526A536ABC
:1008A0004F504E104D104C102CE0200E546ED8902E
:1008B000483649364A364B3650365136523653361C
:1008C0004F50535C08E14E50525C05E14D50515C75
:1008D00002E14C50505C0FE34C50505E4D50D8A09C
:1008E0004D3C515E4E50D8A04E3C525E4F50D8A069
:1008F0004F3C535ED8800036013602360336542E04
:10090000D6D7EA6A500EE96E000CE950406E3B0EF5
:10091000476E9A0E466ECA0E456E446A0A0E426EC5
:100920003FC04BF03EC04AF03DC049F03CC048F0EB
:1009300047C04FF046C04EF045C04DF044C04CF0AB
:10094000A7DF0150EFCF3CF0ECCF3DF0ECCF3EF015
:10095000ECCF3FF000520FE14250010A0CE0405052
:100960000BE00F0B425C01E00DE240BE0BD040BC3F
:1009700003D0200E02D0406A300E002600509EA800
:10098000FED7AD6E47C04BF046C04AF045C049F0B7
:1009900044C048F04F6A4E6A4D6A0A0E4C6E78DFCA
:1009A00003C047F002C046F001C045F000C044F06B
:1009B000422EB6D7000C0F0E496E660E486E0F0120
:1009C00040B70DD0175205E1F10E6F1408096F6E94
:1009D00004D0E00E77140309776E4A6A86D030B7E8
:1009E0000ED0175205E1F10E6F1406096F6E04D098
:1009F000E00E77140409776E010E4A6E76D020B7A8
:100A00000ED0175205E1F10E6F1404096F6E04D079
:100A1000E00E77140509776E020E4A6E66D00E015D
:100A200020B70DD00D01F8B502D00E0108D0E00EB0
:100A300077141209776E030E4A6E56D00E0130B746
:100A40000DD00D01F8B702D00E0108D0E00E7714DA
:100A50001309776E040E4A6E47D00E0140B70DD0D1
:100A60000D01F8B902D00E0108D0E00E7714140978
:100A7000776E050E4A6E38D00E0150B70DD00D01BD
:100A8000F8BB02D00E0108D0E00E77141509776E7E
:100A9000060E4A6E29D00E0160B70DD00D01F8BDCB
:100AA00002D00E0108D0E00E77141609776E070EFB
:100AB0004A6E1AD00E0170B70DD00D01F8BF02D0EA
:100AC0000E0108D0E00E77141709776E080E4A6EF3
:100AD0000BD00E01960EF66E000EF76E000139EC8B
:100AE00001F0000E016ED2D00F014450030B006ED6
:100AF000FC0E60140010606E0F0E4C6E640E4B6E98
:100B000040C050F03FC04FF03EC04EF03DC04DF0F1
:100B100045C051F0000173EC01F043C065FF659CD6
:100B200046B0658C476A4350475C14E241C0E9FF18
:100B300042C0EAFFEFCF4DF049C0EAFF48C0E9FFED
:100B40004DC0EFFF482AD8B4492A412AD8B4422AD6
:100B5000472AE9D76086175204E1F10E6F146F6ED1
:100B600004D0E00E77141009776EBE0EF66E000EFC
:100B7000F76E130E4C6E11DE4AC04CF01B0E4D6E1C
:100B800030DED30EF66E000EF76E040E4C6E05DEF0
:100B900040C04CF0370E4D6E5ADE3FC04CF0370E61
:100BA0004D6E55DE3EC04CF0370E4D6E50DE3DC0F2
:100BB0004CF0370E4D6E4BDEDA0EF66E000EF76E11
:100BC000050E4C6EEADD43C04CF01B0E4D6E09DE87
:100BD000E10EF66E000EF76E050E4C6EDEDD44C0C3
:100BE0004CF01B0E4D6EFDDDE80EF66E000EF76E3E
:100BF000050E4C6ED2DD45C04CF01B0E4D6EF1DD86
:100C0000EF0EF66E000EF76E050E4C6EC6DD46C09A
:100C10004CF01B0E4D6EE5DD0D0E9EA8FED7AD6EA1
:100C20000A0E9EA8FED7AD6E43522EE046522CE12E
:100C30004350415E000E425AFA0EF66E000EF76EF9
:100C400039EC01F0476A4350475C16E242C003F0BA
:100C500041C0E9FF42C0EAFFEFCF4BF04BC04CF080
:100C6000370E4D6EF4DD200E9EA8FED7AD6E412AE4
:100C7000D8B4422A472AE7D70D0E9EA8FED7AD6EFC
:100C80000A0E9EA8FED7AD6E010E016E0FEF0AF0A0
:100C9000F86AD09E078EEA6AE96AB886080EAF6ED7
:100CA000020EB06EA60EAC6E900EAB6EB886080E3D
:100CB000AF6E020EB06EA60EAC6E900EAB6EC15053
:100CC000C00B0F09C16E070EB46E366A356A346AFE
:100CD000040E336E37903792080E386E030E396E5D
:100CE0003A6A3A50070812E3036A3A502B0FE96E4A
:100CF000000E0320EA6EEF6A036A3A50220FE96E93
:100D0000000E0320EA6EEF6A3A2AEBD79C0EF66ECD
:100D1000010EF76E39EC01F0780E0509CA6E4F0E20
:100D2000CB6E07EF02F09D82C00EF212B20EF66E8D
:100D3000010EF76E39EC01F060BE36D00F0150AFF6
:100D400002D0000131D00E0120AF06D00D01F8B560
:100D500002D0000129D00E0130AF06D00D01F8B746
:100D600002D0000121D00E0140AF06D00D01F8B92C
:100D700002D0000119D00E0150AF06D00D01F8BB12
:100D800002D0000111D00E0160AF06D00D01F8BDF8
:100D900002D0000109D00E0170AFDBD20D01F8AF17
:100DA00002D00E01D6D200013C6A220E3B6E60AE2C
:100DB0001ED0175204E1F10E6F146F6E04D0E00ED6
:100DC00077141009776E1C6A175207E01A9074BCEA
:100DD0001A8060501F0B1B6E09D01A9074BE1A80C7
:100DE000749E60A403D01B6A60B01B2AAAD00F01B6
:100DF00050AF1ED0175205E1F10E6F140A096F6E45
:100E000004D0E00E77141109776E010E1C6E175294
:100E100007E01A9074BC1A8050511F0B1B6E07D04C
:100E20001A9074BC1A80749C5051070B1B6E8AD0A8
:100E30000E0120AF13D00D01F8A502D00E010ED087
:100E4000E00E77141209776E020E1C6E1A9074BCB5
:100E50001A800E0120511F0B1B6E73D030AF13D0C0
:100E60000D01F8A702D00E010ED0E00E7714130981
:100E7000776E030E1C6E1A9074BC1A800E013051EE
:100E80001F0B1B6E5ED040AF13D00D01F8A902D02E
:100E90000E010ED0E00E77141409776E040E1C6E4E
:100EA0001A9074BC1A800E0140511F0B1B6E49D062
:100EB00050AF13D00D01F8AB02D00E010ED0E00EF2
:100EC00077141509776E050E1C6E1A9074BC1A8083
:100ED0000E0150511F0B1B6E34D060AF13D00D01AB
:100EE000F8AD02D00E010ED0E00E77141609776E21
:100EF000060E1C6E1A9074BC1A800E0160511F0BF6
:100F00001B6E1FD070AF13D00D01F8AF02D00E01D1
:100F10000ED0E00E77141709776E070E1C6E1A902C
:100F200074BC1A800E0170511F0B1B6E0AD0040E88
:100F3000F66E010EF76E000139EC01F0000E016E45
:100F40004DD10F0165500F0B2A6E1D9065BC1D80A1
:100F50001D9262B61D82000E1DB2010E406E0F0E74
:100F60004B6E640E4A6E40C04CF00001D2EF02F0AE
:100F700003C021F002C020F001C01FF000C01EF02D
:100F80000F0E3F6E660E3E6E3D6A2A503D5C14E2C7
:100F90003EC0E9FF3FC0EAFFEFCF42F03CC0EAFFAE
:100FA0003BC0E9FF42C0EFFF3B2AD8B43C2A3E2AAF
:100FB000D8B43F2A3D2AE9D71C500FE0010A14E0BB
:100FC000030A17E0010A1AE0070A1DE0010A20E0FF
:100FD000030A23E0010A26E02AD0609E175202E0AD
:100FE000A49201D0A49023D00F01509FA49200019D
:100FF0001ED00E01209FA492000119D00E01309F37
:10100000A492000114D00E01409FA49200010FD0C1
:101010000E01509FA49200010AD00E01609FA4927D
:10102000000105D00E01709FA492000100D01D9414
:10103000A4BE1D84A49E175204E1F10E6F146F6EBE
:1010400004D0E00E77141009776E000E1AB0010E6E
:10105000406E320EF66E010EF76E130E4C6ECDEC36
:1010600003F01CC04CF01B0E4D6EF1EC03F0470E6C
:10107000F66E010EF76E040E4C6ECDEC03F021C03F
:101080004CF0370E4D6E27EC04F020C04CF0370EBC
:101090004D6E27EC04F01FC04CF0370E4D6E27EC60
:1010A00004F01EC04CF0370E4D6E27EC04F04E0ECF
:1010B000F66E010EF76E050E4C6ECDEC03F02AC0F5
:1010C0004CF01B0E4D6EF1EC03F0550EF66E010E5A
:1010D000F76E050E4C6ECDEC03F040C04CF01B0ECD
:1010E0004D6EF1EC03F0200E9EA8FED7AD6E000E03
:1010F0001DB0010E406E000E1DB2010E416E000EBD
:101100001DB4010E426E5E0EF66E010EF76E050EF8
:101110004C6ECDEC03F01BC04CF01B0E4D6EF1EC91
:1011200003F0650EF66E010EF76E050E4C6ECDECFB
:1011300003F040C04CF01B0E4D6EF1EC03F06C0E52
:10114000F66E010EF76E050E4C6ECDEC03F041C04D
:101150004CF01B0E4D6EF1EC03F0730EF66E010EAB
:10116000F76E050E4C6ECDEC03F042C04CF01B0E3A
:101170004D6EF1EC03F02A5227E01DB025D02A5025
:101180003B5E000E3C5A7C0EF66E010EF76E39EC9B
:1011900001F03D6A2A503D5C17E23CC003F03BC0C1
:1011A000E9FF3CC0EAFFEFCF40F040C04CF0370E03
:1011B0004D6E27EC04F0200E9EA8FED7AD6E3B2AA4
:1011C000D8B43C2A3D2AE6D70D0E9EA8FED7AD6EB8
:1011D0000A0E9EA8FED7AD6E010E016E0152D8B464
:1011E000B2D0000E1AB0010E3B6EC00EF66E010EAC
:1011F000F76E0C0E4C6ECDEC03F01CC04CF01B0EC9
:101200004D6EF1EC03F0CE0EF66E010EF76E040E8D
:101210004C6ECDEC03F0410EE96E21C03FF020C0D2
:101220003EF01FC03DF01EC03CF085EC04F0D50E32
:10123000F66E010EF76E050E4C6ECDEC03F02AC073
:101240004CF01B0E4D6EF1EC03F0DC0EF66E010E51
:10125000F76E050E4C6ECDEC03F03BC04CF01B0E50
:101260004D6EF1EC03F0200E9EA8FED7AD6E000E81
:101270001DB0010E3B6E000E1DB2010E3C6E000E45
:101280001DB4010E3D6EE60EF66E010EF76E050EF4
:101290004C6ECDEC03F01BC04CF01B0E4D6EF1EC10
:1012A00003F0ED0EF66E010EF76E050E4C6ECDECF2
:1012B00003F03BC04CF01B0E4D6EF1EC03F0F40E4E
:1012C000F66E010EF76E050E4C6ECDEC03F03CC0D1
:1012D0004CF01B0E4D6EF1EC03F0FB0EF66E010EA2
:1012E000F76E050E4C6ECDEC03F03DC04CF01B0EBE
:1012F0004D6EF1EC03F0040EF66E020EF76E39EC53
:1013000001F03A6A2A503A5C15E2036A3A50220F19
:10131000E96E000E0320EA6EEFCF3BF03BC04CF0CD
:10132000370E4D6E27EC04F0200E9EA8FED7AD6E52
:101330003A2AE8D70D0E9EA8FED7AD6E0A0E9EA8DB
:10134000FED7AD6E06D0120EF66E020EF76E39ECB9
:1013500001F00F0140A735D030A733D020A731D0FE
:101360000E0120B706D00D01F8A502D00F0129D03B
:101370000E0130B706D00D01F8A702D00F0121D021
:101380000E0140B706D00D01F8A902D00F0119D007
:101390000E0150B706D00D01F8AB02D00F0111D0ED
:1013A0000E0160B706D00D01F8AD02D00F0109D0D3
:1013B0000E0170B7CFD00D01F8BF02D00E01CAD018
:1013C0000F0119500608D8A002D00E01C3D0FF0AA1
:1013D00006E11850D008D8A002D00E01BBD0196A7F
:1013E000186A000E37B2010E3B6E000E37B0010EC8
:1013F0003C6E36C040F035C03FF034C03EF033C0E4
:101400003DF0426A2B0E416E38C043F039C044F0C3
:101410003BC045F03CC046F00001DBEF04F001C0EA
:101420003AF03A3C01D090D0240EF66E020EF76EE0
:10143000060E4C6ECDEC03F03AC04CF01B0E4D6E18
:10144000F1EC03F02C0EF66E020EF76E050E4C6EEC
:10145000CDEC03F0410EE96E36C03FF035C03EF0F2
:1014600034C03DF033C03CF085EC04F0340EF66E31
:10147000020EF76E050E4C6ECDEC03F038C04CF04A
:101480001B0E4D6EF1EC03F0200E9EA8FED7AD6E44
:10149000000E37B2010E3B6E000E37B0010E3C6EEF
:1014A0003E0EF66E020EF76E040E4C6ECDEC03F09F
:1014B00039C04CF01B0E4D6EF1EC03F0440EF66E8D
:1014C000020EF76E050E4C6ECDEC03F03BC04CF0F7
:1014D0001B0E4D6EF1EC03F04B0EF66E020EF76E26
:1014E000050E4C6ECDEC03F03CC04CF01B0E4D6E67
:1014F000F1EC03F0520EF66E020EF76E0C0E4C6E0F
:10150000CDEC03F03A6A38503A5C15E2036A3A507F
:101510002B0FE96E000E0320EA6EEFCF3BF03BC0CD
:101520004CF0370E4D6E27EC04F0200E9EA8FED72F
:10153000AD6E3A2AE8D70D0E9EA8FED7AD6E0A0E04
:101540009EA8FED7AD6E06D0600EF66E020EF76E48
:0C15500039EC01F000019CEF06F00300F4
:020000040030CA
:0E00000000C21E1E008691000FC00FE00F40D0
:00000001FF
;PIC18F4580
;CRC=3C53  CREATED="26-oct.-20 20:37"
