:1000000070EF11F00A0D0A0D00000D0A2046616C18
:100010006C6F20646520656E76ED6F206465206CE2
:1000200061207472616D612E2E2E200D0A000A204F
:1000300052756E6E696E672E2E2E200A0000564590
:100040004849434C455F53504545443A20256C642C
:10005000204B4D2F682E200A0D200000454E4749A9
:100060004E455F52504D3A20256C642072706D2EC3
:100070000A0D00004655454C5F524154453A202533
:100080006C64204C784B4D2E200A0D000638700B06
:10009000006ED89000361F0E6F1400106F6E6ECF7A
:1000A00000F0003A0030070B065CF9E1000C706AC2
:1000B000F00E716E860E726EF6EF00F02F5252E067
:1000C00029C0E9FF2AC0EAFF2BC0EFFF2950D8B4AE
:1000D0002A06290629C0E9FF2AC0EAFF2CC0EFFF43
:1000E0002950D8B42A06290629C0E9FF2AC0EAFF08
:1000F0002D50030BEF6E29C0E9FF2AC0EAFF2DC087
:1001000000F0003600360036F80E00160050E00B06
:10011000EF10EF6E29C0E9FF2AC0EAFFEF5008098F
:10012000EF6E2950D8B42A06290629C0E9FF2AC053
:10013000EAFF2DC000F0003A0032070E0016005012
:10014000070BEF6E29C0E9FF2AC0EAFF2EC000F0BE
:10015000003600360036F80E00160050F80BEF108F
:10016000EF6E3FD029C0E9FF2AC0EAFFEF6A2950AD
:10017000D8B42A06290629C0E9FF2AC0EAFFEF6A97
:100180002950D8B42A06290629C0E9FF2AC0EAFF67
:100190002BC000F0003A0036E00E00160050E00BD5
:1001A000EF6E2950D8B42A06290629C0E9FF2AC0D3
:1001B000EAFF2BC000F00032003200321F0E0016A2
:1001C00000501F0BEF6E29C0E9FF2AC0EAFF2CC0C8
:1001D00000F0003A0036E00E00160050E00BEF1081
:1001E000EF6E000C040E066E51DF61D7056A606A7F
:1001F0009F0E6014606E608460CF50FF739A739896
:10020000739E739C0F0E2A6E1B0E296E2E6A2D6A2A
:100210002C6A2B6A2F6A52DF0F0E2A6E030E296E8C
:100220002E6A2D6A2C6A2B6A2F6A48DF0F0E2A6EFF
:10023000070E296E2E6A2D6A2C6A2B6A2F6A3EDF02
:100240000F0E2A6E1F0E296E2E6A2D6A2C6A2B6ADB
:100250002F6A34DF0F0E2A6E0B0E296E2E6A2D6A5E
:100260002C6A2B6A2F6A2ADF0F0E2A6E296E2E6ADD
:100270002D6A2C6A2B6A2F6A21DF0F0E2A6E130E4D
:10028000296E2E6A2D6A2C6A2B6A2F6A17DF0F0ED1
:100290002A6E170E296E2E6A2D6A2C6A2B6A2F6A17
:1002A0000DDF0D0E2A6E630E296E2E6A2D6A2C6AE2
:1002B0002B6A2F6A03DF0D0E2A6E670E296E2E6AD7
:1002C0002D6A2C6A2B6A2F6AF9DE0D0E2A6E6B0ED0
:1002D000296E2E6A2D6A2C6A2B6A2F6AEFDE0D0EAC
:1002E0002A6E730E296E2E6A2D6A2C6A2B6A2F6A6B
:1002F000E5DE0D0E2A6E770E296E2E6A2D6A2C6AA7
:100300002B6A2F6ADBDE0D0E2A6E7B0E296E2E6A9B
:100310002D6A2C6A2B6A2F6AD1DE0D0E2A6E830E8F
:10032000296E2E6A2D6A2C6A2B6A2F6AC7DE0D0E83
:100330002A6E870E296E2E6A2D6A2C6A2B6A2F6A06
:10034000BDDE0D0E2A6E8B0E296E2E6A2D6A2C6A6A
:100350002B6A2F6AB3DE0D0E2A6E930E296E2E6A5B
:100360002D6A2C6A2B6A2F6AA9DE9350FB0B0809B1
:10037000936E066A8BDE8EEF11F00900F5520DE0E8
:10038000F6CF19F0F7CF1AF0F5509EA8FED7AD6E54
:1003900019C0F6FF1AC0F7FFF0D7000C0F0E276E3A
:1003A000660E266E0F0140B70DD0055205E1F10E25
:1003B0006F1408096F6E04D0E00E77140309776E8E
:1003C000286A7FD030B70ED0055205E1F10E6F14C8
:1003D00006096F6E04D0E00E77140409776E010EE3
:1003E000286E6FD020B70ED0055205E1F10E6F14C4
:1003F00004096F6E04D0E00E77140509776E020EC3
:10040000286E5FD00E0120B70DD00D01F8B502D0D7
:100410000E0108D0E00E77141209776E030E286ED5
:100420004FD00E0130B70DD00D01F8B702D00E013C
:1004300008D0E00E77141309776E040E286E40D0B2
:100440000E0140B70DD00D01F8B902D00E0108D051
:10045000E00E77141409776E050E286E31D00E0168
:1004600050B70DD00D01F8BB02D00E0108D0E00E40
:1004700077141509776E060E286E22D00E0160B72C
:100480000DD00D01F8BD02D00E0108D0E00E77149A
:100490001609776E070E286E13D00E0170B70DD0B7
:1004A0000D01F8BF02D00E0108D0E00E7714170935
:1004B000776E080E286E04D00E01000E016E43D038
:1004C0000F012250030B006EFC0E60140010606ED2
:1004D0000F0E2A6E640E296E1EC02EF01DC02DF068
:1004E0001CC02CF01BC02BF023C02FF00001E6DD58
:1004F00021C065FF659C24B0658C256A2150255C70
:1005000014E21FC0E9FF20C0EAFFEFCF2BF027C0A5
:10051000EAFF26C0E9FF2BC0EFFF262AD8B4272A1E
:100520001F2AD8B4202A252AE9D76086055204E17B
:10053000F10E6F146F6E04D0E00E77141009776E11
:10054000010E016E0E01000114EF03F0020E096EA0
:10055000010E0A6E0B6A0C6A0D6A0E6A0F6A106A47
:1005600007C00BF0146A136A126A06C011F01590E6
:10057000159208B01582080E166E030E176E0F0145
:1005800040A735D030A733D020A731D00E0120B7F7
:1005900006D00D01F8A502D00F0129D00E0130B709
:1005A00006D00D01F8A702D00F0121D00E0140B7EF
:1005B00006D00D01F8A902D00F0119D00E0150B7D5
:1005C00006D00D01F8AB02D00F0111D00E0160B7BB
:1005D00006D00D01F8AD02D00F0109D00E0170B7A1
:1005E0002FD00D01F8BF02D00E012AD00F01000E4E
:1005F00015B2010E196E000E15B0010E1A6E14C060
:100600001EF013C01DF012C01CF011C01BF0206AB8
:10061000090E1F6E16C021F017C022F019C023F07A
:100620001AC024F00001BAD601C018F0183C01D05D
:1006300001D005D00A0EF66E000EF76E9EDE0E019A
:100640000001000CEA6A070EE96EEF500EE0050E9D
:10065000016E006A002EFED7012EFBD72E0E006E13
:10066000002EFED700D0EF2EF2D7000C2E6A2D6A96
:100670002C6A2B6A29C030F028C02FF02A52D8B437
:1006800093D030C003F02FC0E9FF30C0EAFFEFCFB6
:1006900000F0016A026A036A03C02EF002C02DF066
:1006A00001C02CF000C02BF02F50D8B430062F061C
:1006B0002FC0E9FF30C0EAFFEF50336A326A316E73
:1006C000006A00502B1231502C1232502D12335030
:1006D0002E122F50D8B430062F062FC0E9FF30C09D
:1006E000EAFFEF50346A336A326A316E030E311614
:1006F000326A336A346A006A016A00502B12015070
:100700002C1231502D1232502E122FC0E9FF30C062
:10071000EAFFEF50346A336A326A316EE00E311606
:10072000326A336A346A006A3134016E3234026EDE
:100730003334036E01360236033601360236033691
:10074000013602360336013602360336E00E011654
:1007500000502B1201502C1202502D1203502E1259
:100760002F50D8B430062F062FC0E9FF30C0EAFF63
:10077000EF50326A316E006A016A3134026E3234EF
:10078000036E02360336023603360236033602366D
:100790000336E00E021600502B1201502C120250AC
:1007A0002D1203502E1253D0020E2F5E000E305A1F
:1007B0002FC0E9FF30C0EAFFEF50346A336A326A73
:1007C000316EE00E3116326A336A346A34302E6E7E
:1007D00033302D6E32302C6E31302B6E2E322D3266
:1007E0002C322B322E322D322C322B322E322D3215
:1007F0002C322B322E322D322C322B32070E2E166B
:100800002F50D8B430062F062FC0E9FF30C0EAFFC2
:10081000EF50346A336A326A316E3134006E3234EA
:10082000016E3334026E3434036E00360136023604
:1008300003360036013602360336F80E0016005035
:100840002B1201502C1202502D1203502E122BC0CD
:1008500000F02CC001F02DC002F02EC003F01BEF01
:1008600008F01BBE10D00F0E006E1A3800160A0ECC
:10087000005C03E2300E002602D01B500026005020
:100880009EA8FED7AD6E0F0E1A160A0E1A5C02E273
:10089000300E02D01B9E1B501A261A509EA8FED75F
:1008A000AD6EA0EF08F08E0E006E1EC001F01DC0F0
:1008B00002F0036A015209E102C001F0026A080E67
:1008C000005E015202E1006A08D0D89001BE04D057
:1008D000023601360006F9D7019E000C1D50D8B42F
:1008E00071D0006E2150D8B46DD0002604E3810E83
:1008F000002668E204D07F0E005E64E363E01EC061
:1009000025F02250251A1E8E228E20502402F4CF6C
:1009100027F01F502302F4CF03F0F3CF26F0240278
:10092000F3502726F4502622000E032220502302E3
:10093000F3502726F4502622000E026A03220222D8
:100940001E502402F3502626F4500322000E0222E9
:100950001E502302F3500326F4500222000E016AB7
:10096000012220502202F3502626F4500322000ECA
:10097000022201221F502202F3500326F4500222C9
:10098000000E01221E502202F3500226F4500122D2
:10099000002A01BE05D0263603360236013600068F
:1009A000000E26AE0AD0032A02220122015005E1E0
:1009B000025003E1035001E1002A25BE018E25AE5D
:1009C000019E04D0006A016A026A036A000C800E6C
:1009D000D8B2221A276A286A1EC026F02250261A88
:1009E0001D50D8B4DCD0256E006E2150D8B4E0D0B4
:1009F000255ED8B481D03DE322C02BF02B8E23C0DE
:100A00002AF024C029F0286AD8902B322A322932C1
:100A10002832252EF8D726AE03D02780DDD02790A8
:100A200025902788EA6A200EE96EE9D0279826BE2D
:100A30000AD025A013D02B322A3229322832002A9C
:100A4000D8B4C5D00BD02BBE0CD0D89028362936C0
:100A50002A362B360006D8B4BAD0F5D7278C6BD0FF
:100A6000279C1EC026F01EAE02D02B8EA9D02B9E36
:100A7000A7D021C025F021C000F01D50255E1EC06A
:100A80002BF02B8E1FC02AF020C029F0286AD890A6
:100A90002B322A3229322832252EF8D726AE03D01F
:100AA00027829AD027922590278AEA6A240EE96E37
:100AB000A6D0279A26BE0AD025A013D02B322A32E0
:100AC00029322832002AD8B482D00BD02BBE0CD0C9
:100AD000D890283629362A362B360006D8B477D057
:100AE000F5D7278E28D0279E22C026F022AE02D02E
:100AF0002B8E66D02B9E64D022C02BF02B8E23C071
:100B00002AF024C029F026AE04D02B9E278464D07E
:100B10002794286A2590EA6A200EE96E70D026BED6
:100B20001CD01EC026F025A006D02B322A32293236
:100B30002832002A4CE028AE0BD0292A09E12A2AC3
:100B400007E12B2A05E12B322A322932002A3FE025
:100B500027BC86D727BEC7D71CD0800E2B1A2BAE3A
:100B600004D03AD022C026F00AD01EC026F02B5264
:100B700006E12A5204E1295202E1006A21D02BBE8B
:100B800008D0D890283629362A362B36002EF7D7AB
:100B90001ED026AE02D02B8E13D02B9E11D021C09A
:100BA00000F022C02BF023C02AF024C029F008D086
:100BB0001DC000F01EC02BF01FC02AF020C029F07D
:100BC0002BC001F02AC002F029C003F034D0006A23
:100BD000016A026A036A2FD0286A291E2A1E2B1E68
:100BE000281E282A05E1292A03E12A2A01E12B2AC5
:100BF00027B015D727B256D727B48AD7B3D7EF5027
:100C0000292605E32A2A03E12B2AD8B42580ED52B0
:100C1000EF502A2603E32B2AD8B42580ED52EF505B
:100C2000EFBE01D0800A2B26D8B0258027B8FED68B
:100C300027BA3FD774D7000C1950B608196E036A4B
:100C40001AC01DF01A8ED8901A321B321C32033291
:100C5000023201320032192EF6D71DAE0BD0001E23
:100C6000011E021E031E002AD8B4012AD8B4022A8B
:100C7000D8B4032A000C1D50D8B4A5D0296E215039
:100C8000D8B4A1D0295E05E37F0E2926D8B09BD029
:100C900006D0810E295ED8A096D0D8B494D029C0B1
:100CA00000F0016A026A036A286A1EC027F0278ED4
:100CB0001FC026F020C025F0190E296E2450255E95
:100CC0000DE2010E265E0AE2275E08E2285E06E2D9
:100CD000282A272A262A2450252628D02350265E73
:100CE00012E2010E275E0FE2285E0DE2282A272A73
:100CF000235026262450252619E3262A17E1272AE1
:100D000015E1282A13D022508009275E0EE2010E39
:100D1000285E0BE2282A2250800927262350262607
:100D2000E9E3272AE7E1282AE5D70380292E01D025
:100D30000BD0D8902536263627362836D89003365D
:100D4000023601362A36BAD72AA006D0D890013208
:100D5000023203322A3202D0000635E02ABE1ED00B
:100D6000D89025362636273628362450255E07E2C9
:100D7000010E265E04E2275E02E2285E1AE323509B
:100D8000265E05E2010E275E02E2285E12E3225093
:100D90008009275E03E2010E285E0BE3032A09E1C6
:100DA000022A07E1012A05E1002A0DE001320232A0
:100DB00003321EC029F02250291A29AE02D0018E1A
:100DC00006D0019E04D0006A016A026A036A000C20
:100DD0008E0E006E1950005E1AC002F01BC001F0AA
:100DE000028E005209E0D890025202E1015204E062
:100DF00002320132002EF7D71AAE05D0011E021EB4
:100E0000012AD8B4022A83EF0DF060BE38D00F015A
:100E100050AF02D0000133D00E0120AF06D00D013B
:100E2000F8B502D000012BD00E0130AF06D00D0175
:100E3000F8B702D0000123D00E0140AF06D00D015B
:100E4000F8B902D000011BD00E0150AF06D00D0141
:100E5000F8BB02D0000113D00E0160AF06D00D0127
:100E6000F8BD02D000010BD00E0170AFA2EF10F060
:100E70000D01F8AF03D00E01A2EF10F000011A6AC5
:100E80000F0E196E60AE1ED0055204E1F10E6F1404
:100E90006F6E04D0E00E77141009776E096A055260
:100EA00007E0079074BC078060501F0B086E09D0E4
:100EB000079074BE0780749E60A403D0086A60B077
:100EC000082AA4D00F0150AF1ED0055205E1F10E43
:100ED0006F140A096F6E04D0E00E77141109776E53
:100EE000010E096E055207E0079074BC078050514F
:100EF0001F0B086E07D0079074BC0780749C50517C
:100F0000070B086E82D00E0120AF13D00D01F8A59B
:100F100002D00E010ED0E00E77141209776E020E89
:100F2000096E079074BC07800E0120511F0B086EDC
:100F30006CD030AF13D00D01F8A702D00E010ED047
:100F4000E00E77141309776E030E096E079074BCD8
:100F500007800E0130511F0B086E57D040AF13D0E1
:100F60000D01F8A902D00E010ED0E00E771414097D
:100F7000776E040E096E079074BC07800E01405115
:100F80001F0B086E42D050AF13D00D01F8AB02D04A
:100F90000E010ED0E00E77141509776E050E096E5E
:100FA000079074BC07800E0150511F0B086E2DD0A6
:100FB00060AF13D00D01F8AD02D00E010ED0E00EDF
:100FC00077141609776E060E096E079074BC0780B9
:100FD0000E0160511F0B086E18D070AF13D00D01B9
:100FE000F8AF02D00E010ED0E00E77141709776E1D
:100FF000070E096E079074BC07800E0170511F0B1D
:10100000086E03D0000E016E86D0000165500F0BF4
:10101000176E0A9065BC0A800A9262B60A82000EB8
:101020000AB2010E1E6E0F0E296E640E286E1EC0CF
:101030002AF036EF03F003C00EF002C00DF001C03D
:101040000CF000C00BF00F0E1D6E660E1C6E1B6ABE
:1010500017501B5C14E21CC0E9FF1DC0EAFFEFCF74
:1010600020F01AC0EAFF19C0E9FF20C0EFFF192ADB
:10107000D8B41A2A1C2AD8B41D2A1B2AE9D7095029
:101080000FE0010A14E0030A17E0010A1AE0070A58
:101090001DE0010A20E0030A23E0010A26E02AD02D
:1010A000609E055202E0A49201D0A49023D00F01CB
:1010B000509FA49200011ED00E01209FA492000117
:1010C00019D00E01309FA492000114D00E01409F50
:1010D000A49200010FD00E01509FA49200010AD0EB
:1010E0000E01609FA492000105D00E01709FA49292
:1010F000000100D00A94A4BE0A84A49E055204E113
:10110000F10E6F146F6E04D0E00E77141009776E35
:10111000010E016E0E01186A186A185007081FE3C5
:10112000036A18500F0FE96E000E0320EA6EEFCF2E
:1011300019F019C01AF0570E1B6E000131EF04F0C0
:10114000200E9EA8FED7AD6E2D0E9EA8FED7AD6ECA
:10115000200E9EA8FED7AD6E182A0E01DED70A0E0D
:101160009EA8FED7AD6E0D0E9EA8FED7AD6E0650A2
:10117000000A0001D8B415D1010AD8B412D1030A6B
:10118000D8B40FD1220AD8B40CD1600AD8B409D18E
:10119000010AD8B406D1420AD8B445D11C0AD8B441
:1011A00042D13E0AD8B43FD1100AD8B43CD17C0A0F
:1011B000D8B439D1030AD8B436D14A0AD8B473D1D5
:1011C000150AD8B470D13D0AD8B46DD1020AD8B48A
:1011D0006AD1010AD8B467D16A0AD8B464D1020AC4
:1011E000D8B461D10F0AD8B45ED1010AD8B45BD1AA
:1011F000030AD8B458D1010AD8B455D1070AD8B4D3
:1012000052D11E0AD8B44FD1080AD8B44CD1010A21
:10121000D8B449D1490AD8B468D10E0AD8B465D136
:101220000F0AD8B462D10E0AD8B45FD1030AD8B479
:101230005CD14F0AD8B459D10E0AD8B456D14B0A52
:10124000D8B45AD1010AD8B457D1030AD8B454D16A
:10125000010AD8B451D10F0AD8B44ED1010AD8B47A
:101260004BD1030AD8B448D1010AD8B445D11E0ADB
:10127000D8B480D10A0AD8B47DD1490AD8B47AD179
:101280001A0AD8B477D15A0AD8B496D1010AD8B478
:1012900093D10F0AD8B490D1010AD8B48DD1240AC1
:1012A000D8B48AD1270AD8B4C3D1010AD8B4E1D1BD
:1012B000060AD8B4DED13D0AD8B4DBD1030AD8B4CB
:1012C000D8D13F0AD8B4DCD1020AD8B430D21E0A31
:1012D000D8B465D2320AD8B4BAD2010AD8B411D37C
:1012E0007A0AD8B40ED37D0AD8B462D3010AD8B42E
:1012F0005FD3030AD8B45CD3010AD8B459D30F0A18
:10130000D8B456D3010AD8B453D3030AD8B450D3AF
:10131000010AD8B44DD31F0AD8B44AD3010AD8B4AD
:1013200047D3030AD8B444D3010AD8B441D30F0A2F
:10133000D8B43ED3010AD8B43BD3030AD8B438D3C7
:10134000010AD8B435D3090AD8B49FD30E0AD8B449
:10135000A7EF0DF0010AD8B4A7EF0DF0030AD8B437
:10136000F6D3010AD8B4F3D37D0AD8B417EF0EF040
:10137000010AD8B46EEF0EF0070AD8B4C6EF0EF02B
:10138000170AD8B42BEF0FF0070AD8B482EF0FF08A
:10139000090AD8B4DBEF0FF0030AD8B44AEF10F013
:1013A00000D01C6A1B6A1A6A12C019F012C01CF025
:1013B000196A1A6A1B6A216A206A1F6A1FC003F031
:1013C00013C002F0006A016A0050191201501A128B
:1013D00013501B121F501C12216A206A1F6A14C06E
:1013E0001EF020C003F01FC002F014C001F0006A1C
:1013F0000050191214501A121F501B1220501C12A8
:1014000015C000F0016A026A036A15501910006ED7
:1014100001501A10016E02501B10026E03501C1076
:10142000036EA1EF10F01E6A12C01DF053EC04F021
:1014300003C020F002C01FF001C01EF000C01DF06C
:10144000246A236A226A870E216E6EEC04F000C0C3
:1014500019F001C01AF002C01BF003C01CF01E6A94
:1014600013C01DF053EC04F0D8921CC020F01BC038
:101470001FF01AC01EF019C01DF003C024F002C0F6
:1014800023F001C022F000C021F0E7EC04F003C01B
:101490001CF002C01BF001C01AF000C019F01CECD7
:1014A00006F0A1EF10F01E6A12C01DF053EC04F01C
:1014B00003C020F002C01FF001C01EF000C01DF0EC
:1014C000330E246E236E230E226E800E216E3BECB3
:1014D00006F003C01CF002C01BF001C01AF000C0EF
:1014E00019F01CEC06F0A1EF10F012C000F0016A38
:1014F000026A036AA1EF10F01E6A13C01DF053ECDC
:1015000004F003C020F002C01FF001C01EF000C0B4
:101510001DF00A0E246ED70E236E230E226E7F0E50
:10152000216E3BEC06F000C019F001C01AF002C0B9
:101530001BF003C01CF0D88203C020F002C01FF0D3
:1015400001C01EF000C01DF0246A236A480E226EFE
:10155000850E216EE7EC04F003C01CF002C01BF006
:1015600001C01AF000C019F01CEC06F0A1EF10F059
:10157000A1EF10F01E6A12C01DF053EC04F0D882E7
:1015800003C020F002C01FF001C01EF000C01DF01B
:10159000246A236A200E226E840E216EE7EC04F08A
:1015A00003C01CF002C01BF001C01AF000C019F00B
:1015B0001CEC06F0A1EF10F01E6A12C01DF053ECF7
:1015C00004F003C020F002C01FF001C01EF000C0F4
:1015D0001DF00A0E246ED70E236E230E226E7F0E90
:1015E000216E3BEC06F000C019F001C01AF002C0F9
:1015F0001BF003C01CF0D88203C020F002C01FF013
:1016000001C01EF000C01DF0246A236A480E226E3D
:10161000850E216EE7EC04F003C01CF002C01BF045
:1016200001C01AF000C019F01CEC06F0A1EF10F098
:101630001E6A12C01DF053EC04F003C020F002C07B
:101640001FF001C01EF000C01DF0246A236A400E86
:10165000226E800E216E6EEC04F003C01CF002C0FE
:101660001BF001C01AF000C019F01CEC06F0A1EF4D
:1016700010F012C000F0016A026A036AA1EF10F0D4
:101680001E6A12C01DF053EC04F003C020F002C02B
:101690001FF001C01EF000C01DF0246A236A226AF8
:1016A000870E216E6EEC04F000C019F001C01AF034
:1016B00002C01BF003C01CF01E6A13C01DF053ECE7
:1016C00004F0D8921CC020F01BC01FF01AC01EF0FE
:1016D00019C01DF003C024F002C023F001C022F0A5
:1016E00000C021F0E7EC04F000C019F001C01AF0CE
:1016F00002C01BF003C01CF003C020F002C01FF0AA
:1017000001C01EF000C01DF0246A236A226A810E07
:10171000216E3BEC06F003C01CF002C01BF001C0C0
:101720001AF000C019F01CEC06F0A1EF10F01E6AD0
:1017300012C01DF053EC04F003C020F002C01FF0F3
:1017400001C01EF000C01DF0246A236A226A800EC8
:10175000216E3BEC06F000C019F001C01AF002C087
:101760001BF003C01CF0D88203C020F002C01FF0A1
:1017700001C01EF000C01DF0246A236A226A850E93
:10178000216EE7EC04F003C01CF002C01BF001C0A6
:101790001AF000C019F01CEC06F0A1EF10F01E6A60
:1017A00012C01DF053EC04F003C020F002C01FF083
:1017B00001C01EF000C01DF0246A236A226A870E51
:1017C000216E6EEC04F000C019F001C01AF002C0E6
:1017D0001BF003C01CF01E6A13C01DF053EC04F094
:1017E000D8921CC020F01BC01FF01AC01EF019C0F8
:1017F0001DF003C024F002C023F001C022F000C09D
:1018000021F0E7EC04F000C019F001C01AF002C0AA
:101810001BF003C01CF003C020F002C01FF001C089
:101820001EF000C01DF0246A236A480E226E850E49
:10183000216E3BEC06F003C01CF002C01BF001C09F
:101840001AF000C019F01CEC06F0A1EF10F01E6AAF
:1018500012C01DF053EC04F003C020F002C01FF0D2
:1018600001C01EF000C01DF0246A236A226A870EA0
:10187000216E6EEC04F000C019F001C01AF002C035
:101880001BF003C01CF01E6A13C01DF053EC04F0E3
:10189000D8921CC020F01BC01FF01AC01EF019C047
:1018A0001DF003C024F002C023F001C022F000C0EC
:1018B00021F0E7EC04F000C019F001C01AF002C0FA
:1018C0001BF003C01CF003C020F002C01FF001C0D9
:1018D0001EF000C01DF0C10E246ECA0E236E210E34
:1018E000226E7B0E216E6EEC04F003C01CF002C071
:1018F0001BF001C01AF000C019F01CEC06F0A1EFBB
:1019000010F01E6A12C01DF053EC04F003C020F06A
:1019100002C01FF001C01EF000C01DF0246A236A3F
:10192000226A870E216E6EEC04F000C019F001C02F
:101930001AF002C01BF003C01CF01E6A13C01DF099
:1019400053EC04F0D8921CC020F01BC01FF01AC04A
:101950001EF019C01DF003C024F002C023F001C026
:1019600022F000C021F0E7EC04F000C019F001C043
:101970001AF002C01BF003C01CF003C020F002C02C
:101980001FF001C01EF000C01DF0246A236A200E63
:10199000226E820E216E6EEC04F003C01CF002C0B9
:1019A0001BF001C01AF000C019F01CEC06F0C9D3FE
:1019B0001E6A12C01DF053EC04F003C020F002C0F8
:1019C0001FF001C01EF000C01DF0246A236A226AC5
:1019D000870E216E6EEC04F000C019F001C01AF001
:1019E00002C01BF003C01CF01E6A13C01DF053ECB4
:1019F00004F0D8921CC020F01BC01FF01AC01EF0CB
:101A000019C01DF003C024F002C023F001C022F071
:101A100000C021F0E7EC04F000C019F001C01AF09A
:101A200002C01BF003C01CF003C020F002C01FF076
:101A300001C01EF000C01DF0246A236A226A800ED5
:101A4000216E6EEC04F000C019F001C01AF002C063
:101A50001BF003C01CF003C020F002C01FF001C047
:101A60001EF000C01DF0246A236A226A8F0E216EC8
:101A70003BEC06F003C01CF002C01BF001C01AF0E2
:101A800000C019F01CEC06F05CD31E6A12C01DF0F9
:101A900053EC04F003C020F002C01FF001C01EF0A0
:101AA00000C01DF0246A236A226A870E216E6EEC44
:101AB00004F000C019F001C01AF002C01BF003C00E
:101AC0001CF01E6A13C01DF053EC04F0D8921CC029
:101AD00020F01BC01FF01AC01EF019C01DF003C07B
:101AE00024F002C023F001C022F000C021F0E7EC96
:101AF00004F003C01CF002C01BF001C01AF000C0CB
:101B000019F0E8EF06F002C01AF001C019F002C0A7
:101B10001EF001C01DF053EC04F003C020F002C021
:101B20001FF001C01EF000C01DF0246A236A226A63
:101B3000810E216E3BEC06F003C01CF002C01BF0CE
:101B400001C01AF000C019F01CEC06F0FAD21E6AAF
:101B500012C01DF053EC04F003C020F002C01FF0CF
:101B600001C01EF000C01DF0246A236A226A870E9D
:101B7000216E6EEC04F000C019F001C01AF002C032
:101B80001BF003C01CF01E6A13C01DF053EC04F0E0
:101B9000D8921CC020F01BC01FF01AC01EF019C044
:101BA0001DF003C024F002C023F001C022F000C0E9
:101BB00021F0E7EC04F000C019F001C01AF002C0F7
:101BC0001BF003C01CF003C020F002C01FF001C0D6
:101BD0001EF000C01DF0246A236A200E226E820EC1
:101BE000216E3BEC06F000C019F001C01AF002C0F3
:101BF0001BF003C01CF0D88203C020F002C01FF00D
:101C000001C01EF000C01DF0246A236A200E226E5F
:101C1000840E216EE7EC04F003C01CF002C01BF040
:101C200001C01AF000C019F01CEC06F08AD21E6A3E
:101C300012C01DF053EC04F003C020F002C01FF0EE
:101C400001C01EF000C01DF0246A236A226A870EBC
:101C5000216E6EEC04F000C019F001C01AF002C051
:101C60001BF003C01CF01E6A13C01DF053EC04F0FF
:101C7000D8921CC020F01BC01FF01AC01EF019C063
:101C80001DF003C024F002C023F001C022F000C008
:101C900021F0E7EC04F000C019F001C01AF002C016
:101CA0001BF003C01CF003C020F002C01FF001C0F5
:101CB0001EF000C01DF0246A236A7A0E226E880E80
:101CC000216E3BEC06F003C01CF002C01BF001C00B
:101CD0001AF000C019F01CEC06F033D21E6A12C0D4
:101CE0001DF053EC04F003C020F002C01FF001C04F
:101CF0001EF000C01DF0246A236A226A870E216E3E
:101D00006EEC04F000C019F001C01AF002C01BF024
:101D100003C01CF01E6A13C01DF053EC04F0D892EF
:101D20001CC020F01BC01FF01AC01EF019C01DF00F
:101D300003C024F002C023F001C022F000C021F053
:101D4000E7EC04F000C019F001C01AF002C01BF06B
:101D500003C01CF003C020F002C01FF001C01EF041
:101D600000C01DF0330E246E236E230E226E800EF3
:101D7000216E3BEC06F003C01CF002C01BF001C05A
:101D80001AF000C019F01CEC06F0DBD11E6A12C07C
:101D90001DF053EC04F003C020F002C01FF001C09E
:101DA0001EF000C01DF0246A236A226A870E216E8D
:101DB0006EEC04F000C019F001C01AF002C01BF074
:101DC00003C01CF01E6A13C01DF053EC04F0D8923F
:101DD0001CC020F01BC01FF01AC01EF019C01DF05F
:101DE00003C024F002C023F001C022F000C021F0A3
:101DF000E7EC04F0206A1F6A1E6A800E1D6E03C0A5
:101E000024F002C023F001C022F000C021F06EECEB
:101E100004F000C019F001C01AF002C01BF003C0AA
:101E20001CF003C020F002C01FF001C01EF000C073
:101E30001DF0246A236A226A8F0E216E3BEC06F0A5
:101E400003C01CF002C01BF001C01AF000C019F062
:101E50001CEC06F076D11E6A12C01DF053EC04F0A3
:101E600003C020F002C01FF001C01EF000C01DF032
:101E7000246A236A226A870E216E6EEC04F000C089
:101E800019F001C01AF002C01BF003C01CF01E6A5A
:101E900013C01DF053EC04F0D8921CC020F01BC0FE
:101EA0001FF01AC01EF019C01DF003C024F002C0BC
:101EB00023F001C022F000C021F0E7EC04F000C0E4
:101EC00019F001C01AF002C01BF003C01CF003C0DF
:101ED00020F002C01FF001C01EF000C01DF0246AF7
:101EE000236A480E226E860E216E3BEC06F003C07C
:101EF0001CF002C01BF001C01AF000C019F01CEC6D
:101F000006F01FD11E6A12C01DF053EC04F003C08E
:101F100020F002C01FF001C01EF000C01DF0246AB6
:101F2000236A226A870E216E6EEC04F000C019F05D
:101F300001C01AF002C01BF003C01CF01E6A13C0DF
:101F40001DF053EC04F0D8921CC020F01BC01FF011
:101F50001AC01EF019C01DF003C024F002C023F007
:101F600001C022F000C021F0E7EC04F000C019F03D
:101F700001C01AF002C01BF003C01CF0D88203C0DD
:101F800020F002C01FF001C01EF000C01DF0246A46
:101F9000FE0E236E7F0E226E8D0E216EE7EC04F096
:101FA00003C01CF002C01BF001C01AF000C019F001
:101FB0001CEC06F0C6D01E6A12C01DF053EC04F0F3
:101FC00003C020F002C01FF001C01EF000C01DF0D1
:101FD000246A236A226A870E216E6EEC04F000C028
:101FE00019F001C01AF002C01BF003C01CF01E6AF9
:101FF00013C01DF053EC04F0D8921CC020F01BC09D
:102000001FF01AC01EF019C01DF003C024F002C05A
:1020100023F001C022F000C021F0E7EC04F000C082
:1020200019F001C01AF002C01BF003C01CF003C07D
:1020300020F002C01FF001C01EF000C01DF0246A95
:10204000236A226A860E216E3BEC06F000C019F06E
:1020500001C01AF002C01BF003C01CF0D88203C0FC
:1020600020F002C01FF001C01EF000C01DF0246A65
:10207000236A520E226E860E216EE7EC04F003C036
:102080001CF002C01BF001C01AF000C019F01CECDB
:1020900006F057D01E6A12C01DF053EC04F003C0C6
:1020A00020F002C01FF001C01EF000C01DF0246A25
:1020B000236A226A870E216E6EEC04F000C019F0CC
:1020C00001C01AF002C01BF003C01CF01E6A13C04E
:1020D0001DF053EC04F0D8921CC020F01BC01FF080
:1020E0001AC01EF019C01DF003C024F002C023F076
:1020F00001C022F000C021F0E7EC04F000C019F0AC
:1021000001C01AF002C01BF003C01CF003C020F095
:1021100002C01FF001C01EF000C01DF0246A236A37
:10212000200E226E830E216E3BEC06F003C01CF0E5
:1021300002C01BF001C01AF000C019F01CEC06F040
:1021400000D00E010001000C0900F6CF0BF0F7CF14
:102150000CF0F5509EA8FED7AD6E0BC0F6FF0CC07C
:10216000F7FF0A2EF1D7000C006A016A026A036ABF
:102170001E6A1F6A206A216A1D501C101B101A104B
:102180002CE0200E226ED8901636173618361936E7
:102190001E361F36203621361D50215C08E11C50AA
:1021A000205C05E11B501F5C02E11A501E5C0FE32E
:1021B0001A501E5E1B50D8A01B3C1F5E1C50D8A09E
:1021C0001C3C205E1D50D8A01D3C215ED8800036EE
:1021D000013602360336222ED6D7EA6A1E0EE96E83
:1021E000000CE9500E6E0DAE0DD00E060E8A0A1EC2
:1021F0000B1E0C1E0D1E0A2AD8B40B2AD8B40C2AAA
:10220000D8B40D2A3B0E156E9A0E146ECA0E136EBC
:10221000126A0A0E106E0DC019F00CC018F00BC037
:1022200017F00AC016F015C01DF014C01CF013C042
:102230001BF012C01AF098DF0150EFCF0AF0ECCF7C
:102240000BF0ECCF0CF0ECCF0DF000520FE1105082
:10225000010A0CE00E500CE00F0B105C01E027E2CD
:102260000EBE25D00EBC04D0200E1CD0200E0E16A3
:102270000EAA0AD00E9A00C00EF02D0E9EA8FED710
:10228000AD6E0EC000F00E6A300E0EAA0BD00E9A84
:1022900000C00EF02D0E9EA8FED7AD6E0EC000F051
:1022A0000E6A300E002600509EA8FED7AD6E15C0F7
:1022B00019F014C018F013C017F012C016F01D6A00
:1022C0001C6A1B6A0A0E1A6E4FDF03C015F002C0AB
:1022D00014F001C013F000C012F0102E9CD7000CB7
:1022E000F86AD09EEA6AE96AB886A00EAF6E010E5F
:1022F000B06EA60EAC6E900EAB6EB886A00EAF6E32
:10230000010EB06EA60EAC6E900EAB6EC150C00B3F
:102310000F09C16E070EB46EF2EF00F09D82C00E81
:10232000F2122E0EF66E000EF76EBDEC01F0DF0E0F
:10233000066E0D0E076E086AA6EC02F0640E076EBC
:1023400022EC03F00D0E066E05EC07F003C009F059
:1023500002C008F001C007F000C006F03E0EF66EA5
:10236000000EF76E0F0E0A6EEFDE410EE96E09C029
:102370000DF008C00CF007C00BF006C00AF031DF0A
:10238000500EF66E000EF76E0A0E0A6EDDDE320E8D
:10239000076E22EC03F0DF0E066E0C0E076E086A65
:1023A000A6EC02F0640E076E22EC03F00C0E066E33
:1023B00005EC07F003C009F002C008F001C007F007
:1023C00000C006F05C0EF66E000EF76E0C0E0A6E84
:1023D000BBDE410EE96E09C00DF008C00CF007C06D
:1023E0000BF006C00AF0FDDE6B0EF66E000EF76E07
:1023F000070E0A6EA9DE320E076E22EC03F0DF0E26
:10240000066E5E0E076E086AA6EC02F0020E066EFD
:10241000FA0E076E22EC03F0062EFAD75E0E066E59
:1024200005EC07F003C009F002C008F001C007F096
:1024300000C006F0740EF66E000EF76E0B0E0A6EFC
:1024400083DE410EE96E09C00DF008C00CF007C034
:102450000BF006C00AF0C5DE820EF66E000EF76EB7
:10246000090E0A6E71DE320E076E22EC03F05FD7A2
:02247000030067
:020000040030CA
:0E00000000C21E1E008691000FC00FE00F40D0
:00000001FF
;PIC18F4580
;CRC=8D65  CREATED="19-may.-21 15:40"
