:1000000023EF11F00A0D0A0D00000D0A2046616C65
:100010006C6F20646520656E76ED6F206465206CE2
:1000200061207472616D612E2E2E200D0A000A204F
:1000300052756E6E696E672E2E2E200A00000A2001
:100040002056454849434C455F53504545443A2066
:10005000256C64204B4D2F68202D3E202000454EFE
:1000600047494E455F52504D3A20256C642052500E
:100070004D2E00004655454C5F524154453A2025CF
:100080006C64204C784B4D2E2E2E00000638700BE1
:10009000006ED89000361F0E6F1400106F6E6ECF7A
:1000A00000F0003A0030070B065CF9E1000C410E4D
:1000B000706EF10E716E850E726EF7EF00F02F52BA
:1000C00052E029C0E9FF2AC0EAFF2BC0EFFF295008
:1000D000D8B42A06290629C0E9FF2AC0EAFF2CC0A5
:1000E000EFFF2950D8B42A06290629C0E9FF2AC003
:1000F000EAFF2D50030BEF6E29C0E9FF2AC0EAFF8B
:100100002DC000F0003600360036F80E0016005004
:10011000E00BEF10EF6E29C0E9FF2AC0EAFFEF50B5
:100120000809EF6E2950D8B42A06290629C0E9FF2C
:100130002AC0EAFF2DC000F0003A0032070E001678
:100140000050070BEF6E29C0E9FF2AC0EAFF2EC05E
:1001500000F0003600360036F80E00160050F80B9E
:10016000EF10EF6E3FD029C0E9FF2AC0EAFFEF6A27
:100170002950D8B42A06290629C0E9FF2AC0EAFF77
:10018000EF6A2950D8B42A06290629C0E9FF2AC0F7
:10019000EAFF2BC000F0003A0036E00E00160050D7
:1001A000E00BEF6E2950D8B42A06290629C0E9FFD2
:1001B0002AC0EAFF2BC000F00032003200321F0ECE
:1001C000001600501F0BEF6E29C0E9FF2AC0EAFF9E
:1001D0002CC000F0003A0036E00E00160050E00B94
:1001E000EF10EF6E000C040E066E50DF60D7056A4C
:1001F000606A9F0E6014606E608460CF50FF739AD7
:100200007398739E739C0F0E2A6E1B0E296E2E6AB6
:100210002D6A2C6A2B6A2F6A52DF0F0E2A6E030E8C
:10022000296E2E6A2D6A2C6A2B6A2F6A48DF0F0E00
:100230002A6E070E296E2E6A2D6A2C6A2B6A2F6A87
:100240003EDF0F0E2A6E1F0E296E2E6A2D6A2C6A53
:100250002B6A2F6A34DF0F0E2A6E0B0E296E2E6A60
:100260002D6A2C6A2B6A2F6A2ADF0F0E2A6E296EDE
:100270002E6A2D6A2C6A2B6A2F6A21DF0F0E2A6ED6
:10028000130E296E2E6A2D6A2C6A2B6A2F6A17DFCD
:100290000F0E2A6E170E296E2E6A2D6A2C6A2B6A93
:1002A0002F6A0DDF0D0E2A6E630E296E2E6A2D6ADF
:1002B0002C6A2B6A2F6A03DF0D0E2A6E670E296ED9
:1002C0002E6A2D6A2C6A2B6A2F6AF9DE0D0E2A6EB1
:1002D0006B0E296E2E6A2D6A2C6A2B6A2F6AEFDE4E
:1002E0000D0E2A6E730E296E2E6A2D6A2C6A2B6AE9
:1002F0002F6AE5DE0D0E2A6E770E296E2E6A2D6AA4
:100300002C6A2B6A2F6ADBDE0D0E2A6E7B0E296E9D
:100310002E6A2D6A2C6A2B6A2F6AD1DE0D0E2A6E88
:10032000830E296E2E6A2D6A2C6A2B6A2F6AC7DE0D
:100330000D0E2A6E870E296E2E6A2D6A2C6A2B6A84
:100340002F6ABDDE0D0E2A6E8B0E296E2E6A2D6A67
:100350002C6A2B6A2F6AB3DE0D0E2A6E930E296E5D
:100360002E6A2D6A2C6A2B6A2F6AA9DE9350FB0B2A
:100370000809936E066A8ADE41EF11F00900F55212
:100380000DE0F6CF19F0F7CF1AF0F5509EA8FED782
:10039000AD6E19C0F6FF1AC0F7FFF0D7000C0F0EB4
:1003A000276E660E266E0F0140B70DD0055205E18F
:1003B000F10E6F1408096F6E04D0E00E7714030974
:1003C000776E286A7FD030B70ED0055205E1F10E66
:1003D0006F1406096F6E04D0E00E77140409776E6F
:1003E000010E286E6FD020B70ED0055205E1F10E38
:1003F0006F1404096F6E04D0E00E77140509776E50
:10040000020E286E5FD00E0120B70DD00D01F8B599
:1004100002D00E0108D0E00E77141209776E030E99
:10042000286E4FD00E0130B70DD00D01F8B702D0B5
:100430000E0108D0E00E77141309776E040E286EB3
:1004400040D00E0140B70DD00D01F8B902D00E0119
:1004500008D0E00E77141409776E050E286E31D09F
:100460000E0150B70DD00D01F8BB02D00E0108D01F
:10047000E00E77141509776E060E286E22D00E0155
:1004800060B70DD00D01F8BD02D00E0108D0E00E0E
:1004900077141609776E070E286E13D00E0170B709
:1004A0000DD00D01F8BF02D00E0108D0E00E771478
:1004B0001709776E080E286E04D00E01000E016E2B
:1004C00043D00F012250030B006EFC0E601400108D
:1004D000606E0F0E2A6E640E296E1EC02EF01DC0B7
:1004E0002DF01CC02CF01BC02BF023C02FF00001FE
:1004F000E6DD21C065FF659C24B0658C256A21502E
:10050000255C14E21FC0E9FF20C0EAFFEFCF2BF00B
:1005100027C0EAFF26C0E9FF2BC0EFFF262AD8B488
:10052000272A1F2AD8B4202A252AE9D7608605520F
:1005300004E1F10E6F146F6E04D0E00E7714100911
:10054000776E010E016E0E01000115EF03F0020E31
:10055000096E010E0A6E0B6A0C6A0D6A0E6A0F6A4A
:10056000106A07C00BF0146A136A126A06C011F011
:100570001590159208B01582080E166E030E176EB0
:100580000F0140A735D030A733D020A731D00E01BE
:1005900020B706D00D01F8A502D00F0129D00E0119
:1005A00030B706D00D01F8A702D00F0121D00E01FF
:1005B00040B706D00D01F8A902D00F0119D00E01E5
:1005C00050B706D00D01F8AB02D00F0111D00E01CB
:1005D00060B706D00D01F8AD02D00F0109D00E01B1
:1005E00070B72FD00D01F8BF02D00E012AD00F0135
:1005F000000E15B2010E196E000E15B0010E1A6E26
:1006000014C01EF013C01DF012C01CF011C01BF06E
:10061000206A090E1F6E16C021F017C022F019C003
:1006200023F01AC024F00001BAD601C018F0183C1B
:1006300001D001D005D00A0EF66E000EF76E9EDED8
:100640000E010001000CEA6A070EE96EEF500EE0A1
:10065000050E016E006A002EFED7012EFBD72E0E6E
:10066000006E002EFED700D0EF2EF2D7000C2D6AC0
:100670002C6A2B6A2A6A28C02FF027C02EF0295234
:10068000D8B493D02FC003F02EC0E9FF2FC0EAFFEB
:10069000EFCF00F0016A026A036A03C02DF002C0C6
:1006A0002CF001C02BF000C02AF02E50D8B42F0639
:1006B0002E062EC0E9FF2FC0EAFFEF50326A316AE2
:1006C000306E006A00502A1230502B1231502C121A
:1006D00032502D122E50D8B42F062E062EC0E9FF10
:1006E0002FC0EAFFEF50336A326A316A306E030E70
:1006F0003016316A326A336A006A016A00502A127F
:1007000001502B1230502C1231502D122EC0E9FF07
:100710002FC0EAFFEF50336A326A316A306EE00E62
:100720003016316A326A336A006A3034016E31340D
:10073000026E3234036E013602360336013602365B
:100740000336013602360336013602360336E00E32
:10075000011600502A1201502B1202502C12035085
:100760002D122E50D8B42F062E062EC0E9FF2FC012
:10077000EAFFEF50316A306E006A016A3034026E6F
:100780003134036E02360336023603360236033640
:1007900002360336E00E021600502A1201502B12C8
:1007A00002502C1203502D1253D0020E2E5E000E5A
:1007B0002F5A2EC0E9FF2FC0EAFFEF50336A326A8A
:1007C000316A306EE00E3016316A326A336A333085
:1007D0002D6E32302C6E31302B6E30302A6E2D3231
:1007E0002C322B322A322D322C322B322A322D321D
:1007F0002C322B322A322D322C322B322A32070E57
:100800002D162E50D8B42F062E062EC0E9FF2FC06D
:10081000EAFFEF50336A326A316A306E3034006E6C
:100820003134016E3234026E3334036E00360136D9
:10083000023603360036013602360336F80E00164D
:1008400000502A1201502B1202502C1203502D126C
:100850002AC000F02BC001F02CC002F02DC003F024
:10086000FAEF07F08E0E006E1DC001F01CC002F002
:10087000036A015209E102C001F0026A080E005E3B
:10088000015202E1006A08D0D89001BE04D00236BD
:1008900001360006F9D7019E000C1C50D8B471D067
:1008A000006E2050D8B46DD0002604E3810E0026DF
:1008B00068E204D07F0E005E64E363E01DC024F0B4
:1008C0002150241A1D8E218E1F502302F4CF26F0B2
:1008D0001E502202F4CF03F0F3CF25F02302F35091
:1008E0002626F4502522000E03221F502202F35028
:1008F0002626F4502522000E026A032202221D50F1
:100900002302F3502526F4500322000E02221D502C
:100910002202F3500326F4500222000E016A012243
:100920001F502102F3502526F4500322000E02220C
:1009300001221E502102F3500326F4500222000E21
:1009400001221D502102F3500226F4500122002AF8
:1009500001BE05D025360336023601360006000EEC
:1009600025AE0AD0032A02220122015005E10250DD
:1009700003E1035001E1002A24BE018E24AE019E52
:1009800004D0006A016A026A036A000C800ED8B2C1
:10099000211A266A276A1DC025F02150251A1C50ED
:1009A000D8B4DCD0246E006E2050D8B4E0D0245EE1
:1009B000D8B481D03DE321C02AF02A8E22C029F08C
:1009C00023C028F0276AD8902A32293228322732C9
:1009D000242EF8D725AE03D02680DDD02690249093
:1009E0002688EA6A1F0EE96EE9D0269825BE0AD04D
:1009F00024A013D02A32293228322732002AD8B430
:100A0000C5D00BD02ABE0CD0D89027362836293630
:100A10002A360006D8B4BAD0F5D7268C6BD0269CDF
:100A20001DC025F01DAE02D02A8EA9D02A9EA7D0C7
:100A300020C024F020C000F01C50245E1DC02AF00D
:100A40002A8E1EC029F01FC028F0276AD8902A32AB
:100A5000293228322732242EF8D725AE03D0268219
:100A60009AD026922490268AEA6A230EE96EA6D0AE
:100A7000269A25BE0AD024A013D02A322932283241
:100A80002732002AD8B482D00BD02ABE0CD0D890FE
:100A90002736283629362A360006D8B477D0F5D737
:100AA000268E28D0269E21C025F021AE02D02A8E87
:100AB00066D02A9E64D021C02AF02A8E22C029F056
:100AC00023C028F025AE04D02A9E268464D0269424
:100AD000276A2490EA6A1F0EE96E70D025BE1CD0EA
:100AE0001DC025F024A006D02A3229322832273210
:100AF000002A4CE027AE0BD0282A09E1292A07E179
:100B00002A2A05E12A3229322832002A3FE026BC6F
:100B100086D726BEC7D71CD0800E2A1A2AAE04D08C
:100B20003AD021C025F00AD01DC025F02A5206E196
:100B3000295204E1285202E1006A21D02ABE08D0DD
:100B4000D8902736283629362A36002EF7D71ED0D9
:100B500025AE02D02A8E13D02A9E11D020C000F0DC
:100B600021C02AF022C029F023C028F008D01CC0E0
:100B700000F01DC02AF01EC029F01FC028F02AC0B6
:100B800001F029C002F028C003F034D0006A016AE5
:100B9000026A036A2FD0276A281E291E2A1E271ED2
:100BA000272A05E1282A03E1292A01E12A2A26B079
:100BB00015D726B256D726B48AD7B3D7EF502826F2
:100BC00005E3292A03E12A2AD8B42480ED52EF5004
:100BD000292603E32A2AD8B42480ED52EF50EFBE31
:100BE00001D0800A2A26D8B0248026B8FED626BA9C
:100BF0003FD774D7000C1850B608186E036A19C096
:100C00001CF0198ED89019321A321B32033202327C
:100C100001320032182EF6D71CAE0BD0001E011E7A
:100C2000021E031E002AD8B4012AD8B4022AD8B45E
:100C3000032A000C1C50D8B4A5D0286E2050D8B47C
:100C4000A1D0285E05E37F0E2826D8B09BD006D021
:100C5000810E285ED8A096D0D8B494D028C000F0D9
:100C6000016A026A036A276A1DC026F0268E1EC02A
:100C700025F01FC024F0190E286E2350245E0DE2CB
:100C8000010E255E0AE2265E08E2275E06E2272ABA
:100C9000262A252A2350242628D02250255E12E217
:100CA000010E265E0FE2275E0DE2272A262A225039
:100CB00025262350242619E3252A17E1262A15E1A3
:100CC000272A13D021508009265E0EE2010E275EEE
:100CD0000BE2272A21508009262622502526E9E307
:100CE000262AE7E1272AE5D70380282E01D00BD05A
:100CF000D8902436253626362736D8900336023645
:100D000001362936BAD729A006D0D890013202324E
:100D10000332293202D0000635E029BE1ED0D89019
:100D200024362536263627362350245E07E2010E68
:100D3000255E04E2265E02E2275E1AE32250255E6B
:100D400005E2010E265E02E2275E12E321508009D1
:100D5000265E03E2010E275E0BE3032A09E1022A65
:100D600007E1012A05E1002A0DE0013202320332D7
:100D70001DC028F02150281A28AE02D0018E06D0BE
:100D8000019E04D0006A016A026A036A000C8E0E9A
:100D9000006E1850005E19C002F01AC001F0028EF9
:100DA000005209E0D890025202E1015204E00232FE
:100DB0000132002EF7D719AE05D0011E021E012AFE
:100DC000D8B4022A36EF0DF060BE38D00F0150AF14
:100DD00002D0000133D00E0120AF06D00D01F8B5CE
:100DE00002D000012BD00E0130AF06D00D01F8B7B4
:100DF00002D0000123D00E0140AF06D00D01F8B99A
:100E000002D000011BD00E0150AF06D00D01F8BB7F
:100E100002D0000113D00E0160AF06D00D01F8BD65
:100E200002D000010BD00E0170AF55EF10F00D0194
:100E3000F8AF03D00E0155EF10F00001196A0F0E44
:100E4000186E60AE1ED0055204E1F10E6F146F6E85
:100E500004D0E00E77141009776E096A055207E096
:100E6000079074BC078060501F0B086E09D0079074
:100E700074BE0780749E60A403D0086A60B0082A1C
:100E8000A4D00F0150AF1ED0055205E1F10E6F1432
:100E90000A096F6E04D0E00E77141109776E010E07
:100EA000096E055207E0079074BC078050511F0B74
:100EB000086E07D0079074BC0780749C5051070BD4
:100EC000086E82D00E0120AF13D00D01F8A502D01C
:100ED0000E010ED0E00E77141209776E020E096E25
:100EE000079074BC07800E0120511F0B086E6CD058
:100EF00030AF13D00D01F8A702D00E010ED0E00ED6
:100F000077141309776E030E096E079074BC07807F
:100F10000E0130511F0B086E57D040AF13D00D019A
:100F2000F8A902D00E010ED0E00E77141409776EE6
:100F3000040E096E079074BC07800E0140511F0B10
:100F4000086E42D050AF13D00D01F8AB02D00E01A5
:100F50000ED0E00E77141509776E050E096E079016
:100F600074BC07800E0150511F0B086E2DD060AF6E
:100F700013D00D01F8AD02D00E010ED0E00E7714A3
:100F80001609776E060E096E079074BC07800E0175
:100F900060511F0B086E18D070AF13D00D01F8AF61
:100FA00002D00E010ED0E00E77141709776E070EEF
:100FB000096E079074BC07800E0170511F0B086EFC
:100FC00003D0000E016E86D0000165500F0B176E26
:100FD0000A9065BC0A800A9262B60A82000E0AB2C2
:100FE000010E1D6E0F0E286E640E276E1DC029F0B7
:100FF00037EF03F003C00EF002C00DF001C00CF09B
:1010000000C00BF00F0E1C6E660E1B6E1A6A175096
:101010001A5C14E21BC0E9FF1CC0EAFFEFCF1FF00F
:1010200019C0EAFF18C0E9FF1FC0EFFF182AD8B4A3
:10103000192A1B2AD8B41C2A1A2AE9D709500FE00A
:10104000010A14E0030A17E0010A1AE0070A1DE08A
:10105000010A20E0030A23E0010A26E02AD0609E6C
:10106000055202E0A49201D0A49023D00F01509F1A
:10107000A49200011ED00E01209FA492000119D05D
:101080000E01309FA492000114D00E01409FA49243
:1010900000010FD00E01509FA49200010AD00E0152
:1010A000609FA492000105D00E01709FA4920001E0
:1010B00000D00A94A4BE0A84A49E055204E1F10E55
:1010C0006F146F6E04D0E00E77141009776E010E66
:1010D000016E0E010650000A0001D8B415D1010AB4
:1010E000D8B412D1030AD8B40FD1220AD8B40CD183
:1010F000600AD8B409D1010AD8B406D1420AD8B4DA
:1011000045D11C0AD8B442D13E0AD8B43FD1100A06
:10111000D8B43CD17C0AD8B439D1030AD8B436D17A
:101120004A0AD8B473D1150AD8B470D13D0AD8B4DC
:101130006DD1020AD8B46AD1010AD8B467D16A0A5B
:10114000D8B464D1020AD8B461D10F0AD8B45ED140
:10115000010AD8B45BD1030AD8B458D1010AD8B473
:1011600055D1070AD8B452D11E0AD8B44FD1080AB3
:10117000D8B44CD1010AD8B449D1490AD8B468D1FD
:101180000E0AD8B465D10F0AD8B462D10E0AD8B409
:101190005FD1030AD8B45CD14F0AD8B459D10E0A32
:1011A000D8B456D14B0AD8B45AD1010AD8B457D1C1
:1011B000030AD8B454D1010AD8B451D10F0AD8B413
:1011C0004ED1010AD8B44BD1030AD8B448D1010A90
:1011D000D8B445D11E0AD8B480D10A0AD8B47DD17A
:1011E000490AD8B47AD11A0AD8B477D15A0AD8B4ED
:1011F00096D1010AD8B493D10F0AD8B490D1010A7C
:10120000D8B48DD1240AD8B48AD1270AD8B4C3D18E
:10121000010AD8B4E1D1060AD8B4DED13D0AD8B467
:10122000DBD1030AD8B4D8D13F0AD8B4DCD1020A42
:10123000D8B430D21E0AD8B465D2320AD8B4BAD2E1
:10124000010AD8B411D37A0AD8B40ED37D0AD8B41F
:1012500062D3010AD8B45FD3030AD8B45CD3010ABD
:10126000D8B459D30F0AD8B456D3010AD8B453D33B
:10127000030AD8B450D3010AD8B44DD31F0AD8B446
:101280004AD3010AD8B447D3030AD8B444D3010AD5
:10129000D8B441D30F0AD8B43ED3010AD8B43BD353
:1012A000030AD8B438D3010AD8B435D3090AD8B45C
:1012B0009FD30E0AD8B45AEF0DF0010AD8B45AEFF2
:1012C0000DF0030AD8B4F6D3010AD8B4F3D37D0ADB
:1012D000D8B4CAEF0DF0010AD8B421EF0EF0070A16
:1012E000D8B479EF0EF0170AD8B4DEEF0EF0070A83
:1012F000D8B435EF0FF0090AD8B48EEF0FF0030A17
:10130000D8B4FDEF0FF000D01B6A1A6A196A12C038
:1013100018F012C01BF0186A196A1A6A206A1F6A4C
:101320001E6A1EC003F013C002F0006A016A00507A
:1013300018120150191213501A121E501B12206A53
:101340001F6A1E6A14C01DF01FC003F01EC002F009
:1013500014C001F0006A00501812145019121E50E7
:101360001A121F501B1215C000F0016A026A036AAC
:1013700015501810006E01501910016E02501A100D
:10138000026E03501B10036E54EF10F01D6A12C062
:101390001CF032EC04F003C01FF002C01EF001C0CC
:1013A0001DF000C01CF0236A226A216A870E206E9D
:1013B0004DEC04F000C018F001C019F002C01AF0A2
:1013C00003C01BF01D6A13C01CF032EC04F0D8926D
:1013D0001BC01FF01AC01EF019C01DF018C01CF071
:1013E00003C023F002C022F001C021F000C020F0B1
:1013F000C6EC04F003C01BF002C01AF001C019F0E3
:1014000000C018F0FBEC05F054EF10F01D6A12C09C
:101410001CF032EC04F003C01FF002C01EF001C04B
:101420001DF000C01CF0330E236E226E230E216EC1
:10143000800E206E1AEC06F003C01BF002C01AF0FA
:1014400001C019F000C018F0FBEC05F054EF10F0EB
:1014500012C000F0016A026A036A54EF10F01D6ABC
:1014600013C01CF032EC04F003C01FF002C01EF0E9
:1014700001C01DF000C01CF00A0E236ED70E226EB4
:10148000230E216E7F0E206E1AEC06F000C018F0BD
:1014900001C019F002C01AF003C01BF0D88203C0CB
:1014A0001FF002C01EF001C01DF000C01CF0236A36
:1014B000226A480E216E850E206EC6EC04F003C031
:1014C0001BF002C01AF001C019F000C018F0FBECCC
:1014D00005F054EF10F054EF10F01D6A12C01CF02C
:1014E00032EC04F0D88203C01FF002C01EF001C02D
:1014F0001DF000C01CF0236A226A200E216E840EAB
:10150000206EC6EC04F003C01BF002C01AF001C04C
:1015100019F000C018F0FBEC05F054EF10F01D6A54
:1015200012C01CF032EC04F003C01FF002C01EF029
:1015300001C01DF000C01CF00A0E236ED70E226EF3
:10154000230E216E7F0E206E1AEC06F000C018F0FC
:1015500001C019F002C01AF003C01BF0D88203C00A
:101560001FF002C01EF001C01DF000C01CF0236A75
:10157000226A480E216E850E206EC6EC04F003C070
:101580001BF002C01AF001C019F000C018F0FBEC0B
:1015900005F054EF10F01D6A12C01CF032EC04F09C
:1015A00003C01FF002C01EF001C01DF000C01CF0FF
:1015B000236A226A400E216E800E206E4DEC04F0EC
:1015C00003C01BF002C01AF001C019F000C018F0EF
:1015D000FBEC05F054EF10F012C000F0016A026A53
:1015E000036A54EF10F01D6A12C01CF032EC04F0D4
:1015F00003C01FF002C01EF001C01DF000C01CF0AF
:10160000236A226A216A870E206E4DEC04F000C026
:1016100018F001C019F002C01AF003C01BF01D6AD7
:1016200013C01CF032EC04F0D8921BC01FF01AC09B
:101630001EF019C01DF018C01CF003C023F002C03A
:1016400022F001C021F000C020F0C6EC04F000C080
:1016500018F001C019F002C01AF003C01BF003C05B
:101660001FF002C01EF001C01DF000C01CF0236A74
:10167000226A216A810E206E1AEC06F003C01BF06C
:1016800002C01AF001C019F000C018F0FBEC05F020
:1016900054EF10F01D6A12C01CF032EC04F003C0CD
:1016A0001FF002C01EF001C01DF000C01CF0236A34
:1016B000226A216A800E206E1AEC06F000C018F033
:1016C00001C019F002C01AF003C01BF0D88203C099
:1016D0001FF002C01EF001C01DF000C01CF0236A04
:1016E000226A216A850E206EC6EC04F003C01BF04E
:1016F00002C01AF001C019F000C018F0FBEC05F0B0
:1017000054EF10F01D6A12C01CF032EC04F003C05C
:101710001FF002C01EF001C01DF000C01CF0236AC3
:10172000226A216A870E206E4DEC04F000C018F08A
:1017300001C019F002C01AF003C01BF01D6A13C0EB
:101740001CF032EC04F0D8921BC01FF01AC01EF03F
:1017500019C01DF018C01CF003C023F002C022F015
:1017600001C021F000C020F0C6EC04F000C018F069
:1017700001C019F002C01AF003C01BF003C01FF033
:1017800002C01EF001C01DF000C01CF0236A226AD6
:10179000480E216E850E206E1AEC06F003C01BF079
:1017A00002C01AF001C019F000C018F0FBEC05F0FF
:1017B00054EF10F01D6A12C01CF032EC04F003C0AC
:1017C0001FF002C01EF001C01DF000C01CF0236A13
:1017D000226A216A870E206E4DEC04F000C018F0DA
:1017E00001C019F002C01AF003C01BF01D6A13C03B
:1017F0001CF032EC04F0D8921BC01FF01AC01EF08F
:1018000019C01DF018C01CF003C023F002C022F064
:1018100001C021F000C020F0C6EC04F000C018F0B8
:1018200001C019F002C01AF003C01BF003C01FF082
:1018300002C01EF001C01DF000C01CF0C10E236EDE
:10184000CA0E226E210E216E7B0E206E4DEC04F02E
:1018500003C01BF002C01AF001C019F000C018F05C
:10186000FBEC05F054EF10F01D6A12C01CF032ECD6
:1018700004F003C01FF002C01EF001C01DF000C044
:101880001CF0236A226A216A870E206E4DEC04F058
:1018900000C018F001C019F002C01AF003C01BF01C
:1018A0001D6A13C01CF032EC04F0D8921BC01FF06C
:1018B0001AC01EF019C01DF018C01CF003C023F0A0
:1018C00002C022F001C021F000C020F0C6EC04F0FC
:1018D00000C018F001C019F002C01AF003C01BF0DC
:1018E00003C01FF002C01EF001C01DF000C01CF0BC
:1018F000236A226A200E216E820E206E4DEC04F0C7
:1019000003C01BF002C01AF001C019F000C018F0AB
:10191000FBEC05F0C9D31D6A12C01CF032EC04F0D8
:1019200003C01FF002C01EF001C01DF000C01CF07B
:10193000236A226A216A870E206E4DEC04F000C0F3
:1019400018F001C019F002C01AF003C01BF01D6AA4
:1019500013C01CF032EC04F0D8921BC01FF01AC068
:101960001EF019C01DF018C01CF003C023F002C007
:1019700022F001C021F000C020F0C6EC04F000C04D
:1019800018F001C019F002C01AF003C01BF003C028
:101990001FF002C01EF001C01DF000C01CF0236A41
:1019A000226A216A800E206E4DEC04F000C018F00F
:1019B00001C019F002C01AF003C01BF003C01FF0F1
:1019C00002C01EF001C01DF000C01CF0236A226A94
:1019D000216A8F0E206E1AEC06F003C01BF002C0C5
:1019E0001AF001C019F000C018F0FBEC05F05CD350
:1019F0001D6A12C01CF032EC04F003C01FF002C0DC
:101A00001EF001C01DF000C01CF0236A226A216A8A
:101A1000870E206E4DEC04F000C018F001C019F0E4
:101A200002C01AF003C01BF01D6A13C01CF032EC98
:101A300004F0D8921BC01FF01AC01EF019C01DF090
:101A400018C01CF003C023F002C022F001C021F036
:101A500000C020F0C6EC04F003C01BF002C01AF076
:101A600001C019F000C018F0C7EF06F002C019F06D
:101A700001C018F002C01DF001C01CF032EC04F0EF
:101A800003C01FF002C01EF001C01DF000C01CF01A
:101A9000236A226A216A810E206E1AEC06F003C0C6
:101AA0001BF002C01AF001C019F000C018F0FBECE6
:101AB00005F0FAD21D6A12C01CF032EC04F003C02B
:101AC0001FF002C01EF001C01DF000C01CF0236A10
:101AD000226A216A870E206E4DEC04F000C018F0D7
:101AE00001C019F002C01AF003C01BF01D6A13C038
:101AF0001CF032EC04F0D8921BC01FF01AC01EF08C
:101B000019C01DF018C01CF003C023F002C022F061
:101B100001C021F000C020F0C6EC04F000C018F0B5
:101B200001C019F002C01AF003C01BF003C01FF07F
:101B300002C01EF001C01DF000C01CF0236A226A22
:101B4000200E216E820E206E1AEC06F000C018F0F6
:101B500001C019F002C01AF003C01BF0D88203C004
:101B60001FF002C01EF001C01DF000C01CF0236A6F
:101B7000226A200E216E840E206EC6EC04F003C093
:101B80001BF002C01AF001C019F000C018F0FBEC05
:101B900005F08AD21D6A12C01CF032EC04F003C0BA
:101BA0001FF002C01EF001C01DF000C01CF0236A2F
:101BB000226A216A870E206E4DEC04F000C018F0F6
:101BC00001C019F002C01AF003C01BF01D6A13C057
:101BD0001CF032EC04F0D8921BC01FF01AC01EF0AB
:101BE00019C01DF018C01CF003C023F002C022F081
:101BF00001C021F000C020F0C6EC04F000C018F0D5
:101C000001C019F002C01AF003C01BF003C01FF09E
:101C100002C01EF001C01DF000C01CF0236A226A41
:101C20007A0E216E880E206E1AEC06F003C01BF0AF
:101C300002C01AF001C019F000C018F0FBEC05F06A
:101C400033D21D6A12C01CF032EC04F003C01FF046
:101C500002C01EF001C01DF000C01CF0236A226A01
:101C6000216A870E206E4DEC04F000C018F001C010
:101C700019F002C01AF003C01BF01D6A13C01CF05B
:101C800032EC04F0D8921BC01FF01AC01EF019C02D
:101C90001DF018C01CF003C023F002C022F001C0E8
:101CA00021F000C020F0C6EC04F000C018F001C024
:101CB00019F002C01AF003C01BF003C01FF002C0ED
:101CC0001EF001C01DF000C01CF0330E236E226E0A
:101CD000230E216E800E206E1AEC06F003C01BF05E
:101CE00002C01AF001C019F000C018F0FBEC05F0BA
:101CF000DBD11D6A12C01CF032EC04F003C01FF0EF
:101D000002C01EF001C01DF000C01CF0236A226A50
:101D1000216A870E206E4DEC04F000C018F001C05F
:101D200019F002C01AF003C01BF01D6A13C01CF0AA
:101D300032EC04F0D8921BC01FF01AC01EF019C07C
:101D40001DF018C01CF003C023F002C022F001C037
:101D500021F000C020F0C6EC04F01F6A1E6A1D6A64
:101D6000800E1C6E03C023F002C022F001C021F0DF
:101D700000C020F04DEC04F000C018F001C019F0D4
:101D800002C01AF003C01BF003C01FF002C01EF017
:101D900001C01DF000C01CF0236A226A216A8F0E68
:101DA000206E1AEC06F003C01BF002C01AF001C04E
:101DB00019F000C018F0FBEC05F076D11D6A12C0D6
:101DC0001CF032EC04F003C01FF002C01EF001C092
:101DD0001DF000C01CF0236A226A216A870E206E63
:101DE0004DEC04F000C018F001C019F002C01AF068
:101DF00003C01BF01D6A13C01CF032EC04F0D89233
:101E00001BC01FF01AC01EF019C01DF018C01CF036
:101E100003C023F002C022F001C021F000C020F076
:101E2000C6EC04F000C018F001C019F002C01AF0AE
:101E300003C01BF003C01FF002C01EF001C01DF064
:101E400000C01CF0236A226A480E216E860E206EA6
:101E50001AEC06F003C01BF002C01AF001C019F022
:101E600000C018F0FBEC05F01FD11D6A12C01CF079
:101E700032EC04F003C01FF002C01EF001C01DF0E0
:101E800000C01CF0236A226A216A870E206E4DEC86
:101E900004F000C018F001C019F002C01AF003C02D
:101EA0001BF01D6A13C01CF032EC04F0D8921BC06A
:101EB0001FF01AC01EF019C01DF018C01CF003C09E
:101EC00023F002C022F001C021F000C020F0C6ECD7
:101ED00004F000C018F001C019F002C01AF003C0ED
:101EE0001BF0D88203C01FF002C01EF001C01DF01D
:101EF00000C01CF0236AFE0E226E7F0E216E8D0E36
:101F0000206EC6EC04F003C01BF002C01AF001C042
:101F100019F000C018F0FBEC05F0C6D01D6A12C025
:101F20001CF032EC04F003C01FF002C01EF001C030
:101F30001DF000C01CF0236A226A216A870E206E01
:101F40004DEC04F000C018F001C019F002C01AF006
:101F500003C01BF01D6A13C01CF032EC04F0D892D1
:101F60001BC01FF01AC01EF019C01DF018C01CF0D5
:101F700003C023F002C022F001C021F000C020F015
:101F8000C6EC04F000C018F001C019F002C01AF04D
:101F900003C01BF003C01FF002C01EF001C01DF003
:101FA00000C01CF0236A226A216A860E206E1AEC99
:101FB00006F000C018F001C019F002C01AF003C00A
:101FC0001BF0D88203C01FF002C01EF001C01DF03C
:101FD00000C01CF0236A226A520E216E860E206E0B
:101FE000C6EC04F003C01BF002C01AF001C019F0E7
:101FF00000C018F0FBEC05F057D01D6A12C01CF0B1
:1020000032EC04F003C01FF002C01EF001C01DF04E
:1020100000C01CF0236A226A216A870E206E4DECF4
:1020200004F000C018F001C019F002C01AF003C09B
:102030001BF01D6A13C01CF032EC04F0D8921BC0D8
:102040001FF01AC01EF019C01DF018C01CF003C00C
:1020500023F002C022F001C021F000C020F0C6EC45
:1020600004F000C018F001C019F002C01AF003C05B
:102070001BF003C01FF002C01EF001C01DF000C025
:102080001CF0236A226A200E216E830E206E1AEC49
:1020900006F003C01BF002C01AF001C019F000C026
:1020A00018F0FBEC05F000D00E010001000C090057
:1020B000F6CF0BF0F7CF0CF0F5509EA8FED7AD6E23
:1020C0000BC0F6FF0CC0F7FF0A2EF1D7000C006A18
:1020D000016A026A036A1E6A1F6A206A216A1D5029
:1020E0001C101B101A102CE0200E226ED8901636F1
:1020F0001736183619361E361F36203621361D5033
:10210000215C08E11C50205C05E11B501F5C02E1D2
:102110001A501E5C0FE31A501E5E1B50D8A01B3CC9
:102120001F5E1C50D8A01C3C205E1D50D8A01D3C3A
:10213000215ED8800036013602360336222ED6D7ED
:10214000EA6A1E0EE96E000CE9500E6E0DAE0DD05F
:102150000E060E8A0A1E0B1E0C1E0D1E0A2AD8B46D
:102160000B2AD8B40C2AD8B40D2A3B0E156E9A0E41
:10217000146ECA0E136E126A0A0E106E0DC019F09C
:102180000CC018F00BC017F00AC016F015C01DF0F7
:1021900014C01CF013C01BF012C01AF098DF0150DD
:1021A000EFCF0AF0ECCF0BF0ECCF0CF0ECCF0DF052
:1021B00000520FE11050010A0CE00E500CE00F0B22
:1021C000105C01E027E20EBE25D00EBC04D0200E2C
:1021D0001CD0200E0E160EAA0AD00E9A00C00EF0C9
:1021E0002D0E9EA8FED7AD6E0EC000F00E6A300E0A
:1021F0000EAA0BD00E9A00C00EF02D0E9EA8FED790
:10220000AD6E0EC000F00E6A300E002600509EA883
:10221000FED7AD6E15C019F014C018F013C017F03A
:1022200012C016F01D6A1C6A1B6A0A0E1A6E4FDF76
:1022300003C015F002C014F001C013F000C012F08A
:10224000102E9CD7000CF86AD09EEA6AE96AB8861C
:10225000A00EAF6E010EB06EA60EAC6E900EAB6E01
:10226000B886A00EAF6E010EB06EA60EAC6E900ECC
:10227000AB6EC150C00B0F09C16E070EB46EF3EF09
:1022800000F09D82C00EF2122E0EF66E000EF76E5A
:10229000BEEC01F0DF0E066E0D0E076E086AA7ECAD
:1022A00002F0020E066EFA0E076E23EC03F0062E05
:1022B000FAD70D0E066EE4EC06F003C009F002C07A
:1022C00008F001C007F000C006F03E0EF66E000EEA
:1022D000F76E120E0A6EEBDE410EE96E09C00DF0CC
:1022E00008C00CF007C00BF006C00AF02DDF530E3B
:1022F000F66E000EF76E0A0E0A6ED9DE320E076E0B
:1023000023EC03F0DF0E066E0C0E076E086AA7ECD6
:1023100002F0020E066EFA0E076E23EC03F0062E94
:10232000FAD70C0E066EE4EC06F003C009F002C00A
:1023300008F001C007F000C006F05E0EF66E000E59
:10234000F76E0C0E0A6EB3DE410EE96E09C00DF099
:1023500008C00CF007C00BF006C00AF0F5DE6D0EE9
:10236000F66E000EF76E050E0A6EA1DE320E076ED7
:1023700023EC03F0DF0E066E5E0E076E086AA7EC14
:1023800002F0020E066EFA0E076E23EC03F0062E24
:10239000FAD75E0E066EE4EC06F003C009F002C048
:1023A00008F001C007F000C006F0740EF66E000ED3
:1023B000F76E0B0E0A6E7BDE410EE96E09C00DF062
:1023C00008C00CF007C00BF006C00AF0BDDE820E9C
:1023D000F66E000EF76E080E0A6E69DE320E076E9C
:0823E00023EC03F057D70300C2
:020000040030CA
:0E00000000C21E1E008691000FC00FE00F40D0
:00000001FF
;PIC18F4580
;CRC=7BEF  CREATED="03-nov.-20 20:49"
